{"abi":[{"inputs":[],"stateMutability":"nonpayable","type":"constructor"},{"inputs":[{"internalType":"address","name":"ownerAddress","type":"address"}],"name":"balanceOf","outputs":[{"internalType":"uint256","name":"","type":"uint256"}],"stateMutability":"view","type":"function"},{"inputs":[],"name":"currentNumberOfTokens","outputs":[{"internalType":"uint256","name":"","type":"uint256"}],"stateMutability":"view","type":"function"},{"inputs":[{"internalType":"string","name":"input","type":"string"},{"internalType":"string","name":"skill","type":"string"},{"internalType":"string","name":"description","type":"string"},{"internalType":"uint256","name":"value","type":"uint256"}],"name":"mint","outputs":[],"stateMutability":"nonpayable","type":"function"},{"inputs":[{"internalType":"uint256","name":"tokenId","type":"uint256"}],"name":"ownerOf","outputs":[{"internalType":"address","name":"","type":"address"}],"stateMutability":"view","type":"function"},{"inputs":[{"internalType":"address","name":"","type":"address"}],"name":"owners","outputs":[{"internalType":"uint256","name":"","type":"uint256"}],"stateMutability":"view","type":"function"},{"inputs":[{"internalType":"uint256","name":"","type":"uint256"}],"name":"ownership","outputs":[{"internalType":"address","name":"","type":"address"}],"stateMutability":"view","type":"function"},{"inputs":[{"internalType":"uint256","name":"","type":"uint256"}],"name":"skills","outputs":[{"internalType":"uint256","name":"tokenId","type":"uint256"},{"internalType":"string","name":"skill","type":"string"},{"internalType":"string","name":"description","type":"string"},{"internalType":"address","name":"currentOwner","type":"address"},{"internalType":"uint256","name":"value","type":"uint256"}],"stateMutability":"view","type":"function"},{"inputs":[{"internalType":"uint256","name":"tokenId","type":"uint256"}],"name":"transactionToCreator","outputs":[],"stateMutability":"payable","type":"function"},{"inputs":[{"internalType":"address","name":"toSend","type":"address"},{"internalType":"uint256","name":"tokenId","type":"uint256"}],"name":"transfer","outputs":[],"stateMutability":"nonpayable","type":"function"},{"inputs":[{"internalType":"address","name":"sendTo","type":"address"},{"internalType":"address","name":"sendFrom","type":"address"},{"internalType":"uint256","name":"tokenId","type":"uint256"}],"name":"transferFrom","outputs":[],"stateMutability":"nonpayable","type":"function"}],"devdoc":{"kind":"dev","methods":{},"version":1},"evm":{"assembly":"    /* \"UniqueSkill.sol\":60:2385  contract UniqueSkill {... */\n  mstore(0x40, 0x80)\n    /* \"UniqueSkill.sol\":513:611  constructor () {... */\n  callvalue\n  dup1\n  iszero\n  tag_1\n  jumpi\n  0x00\n  dup1\n  revert\ntag_1:\n  pop\n    /* \"UniqueSkill.sol\":557:566  tx.origin */\n  origin\n    /* \"UniqueSkill.sol\":539:546  creator */\n  0x00\n  dup1\n    /* \"UniqueSkill.sol\":539:567  creator = payable(tx.origin) */\n  0x0100\n  exp\n  dup2\n  sload\n  dup2\n  0xffffffffffffffffffffffffffffffffffffffff\n  mul\n  not\n  and\n  swap1\n  dup4\n  0xffffffffffffffffffffffffffffffffffffffff\n  and\n  mul\n  or\n  swap1\n  sstore\n  pop\n    /* \"UniqueSkill.sol\":602:603  1 */\n  0x01\n    /* \"UniqueSkill.sol\":578:599  currentNumberOfTokens */\n  0x04\n    /* \"UniqueSkill.sol\":578:603  currentNumberOfTokens = 1 */\n  dup2\n  swap1\n  sstore\n  pop\n    /* \"UniqueSkill.sol\":60:2385  contract UniqueSkill {... */\n  dataSize(sub_0)\n  dup1\n  dataOffset(sub_0)\n  0x00\n  codecopy\n  0x00\n  return\nstop\n\nsub_0: assembly {\n        /* \"UniqueSkill.sol\":60:2385  contract UniqueSkill {... */\n      mstore(0x40, 0x80)\n      jumpi(tag_1, lt(calldatasize, 0x04))\n      shr(0xe0, calldataload(0x00))\n      dup1\n      0x50d15fbe\n      gt\n      tag_12\n      jumpi\n      dup1\n      0x50d15fbe\n      eq\n      tag_7\n      jumpi\n      dup1\n      0x6352211e\n      eq\n      tag_8\n      jumpi\n      dup1\n      0x70a08231\n      eq\n      tag_9\n      jumpi\n      dup1\n      0xa0f45b69\n      eq\n      tag_10\n      jumpi\n      dup1\n      0xa9059cbb\n      eq\n      tag_11\n      jumpi\n      jump(tag_1)\n    tag_12:\n      dup1\n      0x01051c72\n      eq\n      tag_2\n      jumpi\n      dup1\n      0x022914a7\n      eq\n      tag_3\n      jumpi\n      dup1\n      0x12d89dee\n      eq\n      tag_4\n      jumpi\n      dup1\n      0x23b872dd\n      eq\n      tag_5\n      jumpi\n      dup1\n      0x31b6475c\n      eq\n      tag_6\n      jumpi\n    tag_1:\n      0x00\n      dup1\n      revert\n        /* \"UniqueSkill.sol\":433:466  uint public currentNumberOfTokens */\n    tag_2:\n      callvalue\n      dup1\n      iszero\n      tag_13\n      jumpi\n      0x00\n      dup1\n      revert\n    tag_13:\n      pop\n      tag_14\n      tag_15\n      jump\t// in\n    tag_14:\n      mload(0x40)\n      tag_16\n      swap2\n      swap1\n      tag_17\n      jump\t// in\n    tag_16:\n      mload(0x40)\n      dup1\n      swap2\n      sub\n      swap1\n      return\n        /* \"UniqueSkill.sol\":388:426  mapping(address => uint) public owners */\n    tag_3:\n      callvalue\n      dup1\n      iszero\n      tag_18\n      jumpi\n      0x00\n      dup1\n      revert\n    tag_18:\n      pop\n      tag_19\n      0x04\n      dup1\n      calldatasize\n      sub\n      dup2\n      add\n      swap1\n      tag_20\n      swap2\n      swap1\n      tag_21\n      jump\t// in\n    tag_20:\n      tag_22\n      jump\t// in\n    tag_19:\n      mload(0x40)\n      tag_23\n      swap2\n      swap1\n      tag_17\n      jump\t// in\n    tag_23:\n      mload(0x40)\n      dup1\n      swap2\n      sub\n      swap1\n      return\n        /* \"UniqueSkill.sol\":2189:2380  function transactionToCreator(uint tokenId) public payable  {... */\n    tag_4:\n      tag_24\n      0x04\n      dup1\n      calldatasize\n      sub\n      dup2\n      add\n      swap1\n      tag_25\n      swap2\n      swap1\n      tag_26\n      jump\t// in\n    tag_25:\n      tag_27\n      jump\t// in\n    tag_24:\n      stop\n        /* \"UniqueSkill.sol\":1898:2183  function transferFrom(address sendTo, address sendFrom, uint tokenId) public {... */\n    tag_5:\n      callvalue\n      dup1\n      iszero\n      tag_28\n      jumpi\n      0x00\n      dup1\n      revert\n    tag_28:\n      pop\n      tag_29\n      0x04\n      dup1\n      calldatasize\n      sub\n      dup2\n      add\n      swap1\n      tag_30\n      swap2\n      swap1\n      tag_31\n      jump\t// in\n    tag_30:\n      tag_32\n      jump\t// in\n    tag_29:\n      stop\n        /* \"UniqueSkill.sol\":951:1599  function mint(string memory input, string memory skill, string memory description, uint value) public creatorAuth  {... */\n    tag_6:\n      callvalue\n      dup1\n      iszero\n      tag_33\n      jumpi\n      0x00\n      dup1\n      revert\n    tag_33:\n      pop\n      tag_34\n      0x04\n      dup1\n      calldatasize\n      sub\n      dup2\n      add\n      swap1\n      tag_35\n      swap2\n      swap1\n      tag_36\n      jump\t// in\n    tag_35:\n      tag_37\n      jump\t// in\n    tag_34:\n      stop\n        /* \"UniqueSkill.sol\":341:381  mapping(uint => SkillData) public skills */\n    tag_7:\n      callvalue\n      dup1\n      iszero\n      tag_38\n      jumpi\n      0x00\n      dup1\n      revert\n    tag_38:\n      pop\n      tag_39\n      0x04\n      dup1\n      calldatasize\n      sub\n      dup2\n      add\n      swap1\n      tag_40\n      swap2\n      swap1\n      tag_26\n      jump\t// in\n    tag_40:\n      tag_41\n      jump\t// in\n    tag_39:\n      mload(0x40)\n      tag_42\n      swap6\n      swap5\n      swap4\n      swap3\n      swap2\n      swap1\n      tag_43\n      jump\t// in\n    tag_42:\n      mload(0x40)\n      dup1\n      swap2\n      sub\n      swap1\n      return\n        /* \"UniqueSkill.sol\":786:945  function ownerOf(uint tokenId) public view creatorAuth returns (address) {... */\n    tag_8:\n      callvalue\n      dup1\n      iszero\n      tag_44\n      jumpi\n      0x00\n      dup1\n      revert\n    tag_44:\n      pop\n      tag_45\n      0x04\n      dup1\n      calldatasize\n      sub\n      dup2\n      add\n      swap1\n      tag_46\n      swap2\n      swap1\n      tag_26\n      jump\t// in\n    tag_46:\n      tag_47\n      jump\t// in\n    tag_45:\n      mload(0x40)\n      tag_48\n      swap2\n      swap1\n      tag_49\n      jump\t// in\n    tag_48:\n      mload(0x40)\n      dup1\n      swap2\n      sub\n      swap1\n      return\n        /* \"UniqueSkill.sol\":621:780  function balanceOf(address ownerAddress) public view creatorAuth returns (uint){... */\n    tag_9:\n      callvalue\n      dup1\n      iszero\n      tag_50\n      jumpi\n      0x00\n      dup1\n      revert\n    tag_50:\n      pop\n      tag_51\n      0x04\n      dup1\n      calldatasize\n      sub\n      dup2\n      add\n      swap1\n      tag_52\n      swap2\n      swap1\n      tag_21\n      jump\t// in\n    tag_52:\n      tag_53\n      jump\t// in\n    tag_51:\n      mload(0x40)\n      tag_54\n      swap2\n      swap1\n      tag_17\n      jump\t// in\n    tag_54:\n      mload(0x40)\n      dup1\n      swap2\n      sub\n      swap1\n      return\n        /* \"UniqueSkill.sol\":293:334  mapping(uint => address) public ownership */\n    tag_10:\n      callvalue\n      dup1\n      iszero\n      tag_55\n      jumpi\n      0x00\n      dup1\n      revert\n    tag_55:\n      pop\n      tag_56\n      0x04\n      dup1\n      calldatasize\n      sub\n      dup2\n      add\n      swap1\n      tag_57\n      swap2\n      swap1\n      tag_26\n      jump\t// in\n    tag_57:\n      tag_58\n      jump\t// in\n    tag_56:\n      mload(0x40)\n      tag_59\n      swap2\n      swap1\n      tag_49\n      jump\t// in\n    tag_59:\n      mload(0x40)\n      dup1\n      swap2\n      sub\n      swap1\n      return\n        /* \"UniqueSkill.sol\":1696:1892  function transfer(address toSend,uint tokenId) public creatorAuth {... */\n    tag_11:\n      callvalue\n      dup1\n      iszero\n      tag_60\n      jumpi\n      0x00\n      dup1\n      revert\n    tag_60:\n      pop\n      tag_61\n      0x04\n      dup1\n      calldatasize\n      sub\n      dup2\n      add\n      swap1\n      tag_62\n      swap2\n      swap1\n      tag_63\n      jump\t// in\n    tag_62:\n      tag_64\n      jump\t// in\n    tag_61:\n      stop\n        /* \"UniqueSkill.sol\":433:466  uint public currentNumberOfTokens */\n    tag_15:\n      sload(0x04)\n      dup2\n      jump\t// out\n        /* \"UniqueSkill.sol\":388:426  mapping(address => uint) public owners */\n    tag_22:\n      mstore(0x20, 0x03)\n      dup1\n      0x00\n      mstore\n      keccak256(0x00, 0x40)\n      0x00\n      swap2\n      pop\n      swap1\n      pop\n      sload\n      dup2\n      jump\t// out\n        /* \"UniqueSkill.sol\":2189:2380  function transactionToCreator(uint tokenId) public payable  {... */\n    tag_27:\n        /* \"UniqueSkill.sol\":2281:2287  skills */\n      0x02\n        /* \"UniqueSkill.sol\":2281:2296  skills[tokenId] */\n      0x00\n        /* \"UniqueSkill.sol\":2288:2295  tokenId */\n      dup3\n        /* \"UniqueSkill.sol\":2281:2296  skills[tokenId] */\n      dup2\n      mstore\n      0x20\n      add\n      swap1\n      dup2\n      mstore\n      0x20\n      add\n      0x00\n      keccak256\n        /* \"UniqueSkill.sol\":2281:2302  skills[tokenId].value */\n      0x04\n      add\n      sload\n        /* \"UniqueSkill.sol\":2268:2277  msg.value */\n      callvalue\n        /* \"UniqueSkill.sol\":2268:2302  msg.value >= skills[tokenId].value */\n      lt\n      iszero\n        /* \"UniqueSkill.sol\":2260:2303  require(msg.value >= skills[tokenId].value) */\n      tag_66\n      jumpi\n      0x00\n      dup1\n      revert\n    tag_66:\n        /* \"UniqueSkill.sol\":2314:2324  uint value */\n      0x00\n        /* \"UniqueSkill.sol\":2327:2336  msg.value */\n      callvalue\n        /* \"UniqueSkill.sol\":2314:2336  uint value = msg.value */\n      swap1\n      pop\n        /* \"UniqueSkill.sol\":2347:2354  creator */\n      0x00\n      dup1\n      sload\n      swap1\n      0x0100\n      exp\n      swap1\n      div\n      0xffffffffffffffffffffffffffffffffffffffff\n      and\n        /* \"UniqueSkill.sol\":2347:2363  creator.transfer */\n      0xffffffffffffffffffffffffffffffffffffffff\n      and\n        /* \"UniqueSkill.sol\":2347:2370  creator.transfer(value) */\n      0x08fc\n        /* \"UniqueSkill.sol\":2364:2369  value */\n      dup3\n        /* \"UniqueSkill.sol\":2347:2370  creator.transfer(value) */\n      swap1\n      dup2\n      iszero\n      mul\n      swap1\n      mload(0x40)\n      0x00\n      mload(0x40)\n      dup1\n      dup4\n      sub\n      dup2\n      dup6\n      dup9\n      dup9\n      call\n      swap4\n      pop\n      pop\n      pop\n      pop\n      iszero\n      dup1\n      iszero\n      tag_68\n      jumpi\n      returndatasize\n      0x00\n      dup1\n      returndatacopy\n      revert(0x00, returndatasize)\n    tag_68:\n      pop\n        /* \"UniqueSkill.sol\":2249:2380  {... */\n      pop\n        /* \"UniqueSkill.sol\":2189:2380  function transactionToCreator(uint tokenId) public payable  {... */\n      pop\n      jump\t// out\n        /* \"UniqueSkill.sol\":1898:2183  function transferFrom(address sendTo, address sendFrom, uint tokenId) public {... */\n    tag_32:\n        /* \"UniqueSkill.sol\":2014:2021  tokenId */\n      dup1\n        /* \"UniqueSkill.sol\":1994:2000  owners */\n      0x03\n        /* \"UniqueSkill.sol\":1994:2010  owners[sendFrom] */\n      0x00\n        /* \"UniqueSkill.sol\":2001:2009  sendFrom */\n      dup5\n        /* \"UniqueSkill.sol\":1994:2010  owners[sendFrom] */\n      0xffffffffffffffffffffffffffffffffffffffff\n      and\n      0xffffffffffffffffffffffffffffffffffffffff\n      and\n      dup2\n      mstore\n      0x20\n      add\n      swap1\n      dup2\n      mstore\n      0x20\n      add\n      0x00\n      keccak256\n      sload\n        /* \"UniqueSkill.sol\":1994:2021  owners[sendFrom] == tokenId */\n      eq\n        /* \"UniqueSkill.sol\":1986:2022  require(owners[sendFrom] == tokenId) */\n      tag_70\n      jumpi\n      0x00\n      dup1\n      revert\n    tag_70:\n        /* \"UniqueSkill.sol\":2050:2057  tokenId */\n      dup1\n        /* \"UniqueSkill.sol\":2033:2039  owners */\n      0x03\n        /* \"UniqueSkill.sol\":2033:2047  owners[sendTo] */\n      0x00\n        /* \"UniqueSkill.sol\":2040:2046  sendTo */\n      dup6\n        /* \"UniqueSkill.sol\":2033:2047  owners[sendTo] */\n      0xffffffffffffffffffffffffffffffffffffffff\n      and\n      0xffffffffffffffffffffffffffffffffffffffff\n      and\n      dup2\n      mstore\n      0x20\n      add\n      swap1\n      dup2\n      mstore\n      0x20\n      add\n      0x00\n      keccak256\n        /* \"UniqueSkill.sol\":2033:2057  owners[sendTo] = tokenId */\n      dup2\n      swap1\n      sstore\n      pop\n        /* \"UniqueSkill.sol\":2087:2088  0 */\n      0x00\n        /* \"UniqueSkill.sol\":2068:2074  owners */\n      0x03\n        /* \"UniqueSkill.sol\":2068:2084  owners[sendFrom] */\n      0x00\n        /* \"UniqueSkill.sol\":2075:2083  sendFrom */\n      dup5\n        /* \"UniqueSkill.sol\":2068:2084  owners[sendFrom] */\n      0xffffffffffffffffffffffffffffffffffffffff\n      and\n      0xffffffffffffffffffffffffffffffffffffffff\n      and\n      dup2\n      mstore\n      0x20\n      add\n      swap1\n      dup2\n      mstore\n      0x20\n      add\n      0x00\n      keccak256\n        /* \"UniqueSkill.sol\":2068:2088  owners[sendFrom] = 0 */\n      dup2\n      swap1\n      sstore\n      pop\n        /* \"UniqueSkill.sol\":2120:2126  sendTo */\n      dup3\n        /* \"UniqueSkill.sol\":2099:2108  ownership */\n      0x01\n        /* \"UniqueSkill.sol\":2099:2117  ownership[tokenId] */\n      0x00\n        /* \"UniqueSkill.sol\":2109:2116  tokenId */\n      dup4\n        /* \"UniqueSkill.sol\":2099:2117  ownership[tokenId] */\n      dup2\n      mstore\n      0x20\n      add\n      swap1\n      dup2\n      mstore\n      0x20\n      add\n      0x00\n      keccak256\n      0x00\n        /* \"UniqueSkill.sol\":2099:2126  ownership[tokenId] = sendTo */\n      0x0100\n      exp\n      dup2\n      sload\n      dup2\n      0xffffffffffffffffffffffffffffffffffffffff\n      mul\n      not\n      and\n      swap1\n      dup4\n      0xffffffffffffffffffffffffffffffffffffffff\n      and\n      mul\n      or\n      swap1\n      sstore\n      pop\n        /* \"UniqueSkill.sol\":2168:2174  sendTo */\n      dup3\n        /* \"UniqueSkill.sol\":2137:2143  skills */\n      0x02\n        /* \"UniqueSkill.sol\":2137:2152  skills[tokenId] */\n      0x00\n        /* \"UniqueSkill.sol\":2144:2151  tokenId */\n      dup4\n        /* \"UniqueSkill.sol\":2137:2152  skills[tokenId] */\n      dup2\n      mstore\n      0x20\n      add\n      swap1\n      dup2\n      mstore\n      0x20\n      add\n      0x00\n      keccak256\n        /* \"UniqueSkill.sol\":2137:2165  skills[tokenId].currentOwner */\n      0x03\n      add\n      0x00\n        /* \"UniqueSkill.sol\":2137:2174  skills[tokenId].currentOwner = sendTo */\n      0x0100\n      exp\n      dup2\n      sload\n      dup2\n      0xffffffffffffffffffffffffffffffffffffffff\n      mul\n      not\n      and\n      swap1\n      dup4\n      0xffffffffffffffffffffffffffffffffffffffff\n      and\n      mul\n      or\n      swap1\n      sstore\n      pop\n        /* \"UniqueSkill.sol\":1898:2183  function transferFrom(address sendTo, address sendFrom, uint tokenId) public {... */\n      pop\n      pop\n      pop\n      jump\t// out\n        /* \"UniqueSkill.sol\":951:1599  function mint(string memory input, string memory skill, string memory description, uint value) public creatorAuth  {... */\n    tag_37:\n        /* \"UniqueSkill.sol\":1662:1669  creator */\n      0x00\n      dup1\n      sload\n      swap1\n      0x0100\n      exp\n      swap1\n      div\n      0xffffffffffffffffffffffffffffffffffffffff\n      and\n        /* \"UniqueSkill.sol\":1648:1669  msg.sender == creator */\n      0xffffffffffffffffffffffffffffffffffffffff\n      and\n        /* \"UniqueSkill.sol\":1648:1658  msg.sender */\n      caller\n        /* \"UniqueSkill.sol\":1648:1669  msg.sender == creator */\n      0xffffffffffffffffffffffffffffffffffffffff\n      and\n      eq\n        /* \"UniqueSkill.sol\":1640:1670  require(msg.sender == creator) */\n      tag_72\n      jumpi\n      0x00\n      dup1\n      revert\n    tag_72:\n        /* \"UniqueSkill.sol\":1077:1094  bytes32 hashToken */\n      0x00\n        /* \"UniqueSkill.sol\":1124:1145  currentNumberOfTokens */\n      sload(0x04)\n        /* \"UniqueSkill.sol\":1147:1152  input */\n      dup6\n        /* \"UniqueSkill.sol\":1107:1153  abi.encodePacked(currentNumberOfTokens, input) */\n      add(0x20, mload(0x40))\n      tag_74\n      swap3\n      swap2\n      swap1\n      tag_75\n      jump\t// in\n    tag_74:\n      mload(0x40)\n      0x20\n      dup2\n      dup4\n      sub\n      sub\n      dup2\n      mstore\n      swap1\n      0x40\n      mstore\n        /* \"UniqueSkill.sol\":1097:1154  keccak256(abi.encodePacked(currentNumberOfTokens, input)) */\n      dup1\n      mload\n      swap1\n      0x20\n      add\n      keccak256\n        /* \"UniqueSkill.sol\":1077:1154  bytes32 hashToken = keccak256(abi.encodePacked(currentNumberOfTokens, input)) */\n      swap1\n      pop\n        /* \"UniqueSkill.sol\":1197:1206  hashToken */\n      dup1\n        /* \"UniqueSkill.sol\":1165:1171  tokens */\n      0x05\n        /* \"UniqueSkill.sol\":1165:1194  tokens[currentNumberOfTokens] */\n      0x00\n        /* \"UniqueSkill.sol\":1172:1193  currentNumberOfTokens */\n      sload(0x04)\n        /* \"UniqueSkill.sol\":1165:1194  tokens[currentNumberOfTokens] */\n      dup2\n      mstore\n      0x20\n      add\n      swap1\n      dup2\n      mstore\n      0x20\n      add\n      0x00\n      keccak256\n        /* \"UniqueSkill.sol\":1165:1206  tokens[currentNumberOfTokens] = hashToken */\n      dup2\n      swap1\n      sstore\n      pop\n        /* \"UniqueSkill.sol\":1252:1259  creator */\n      0x00\n      dup1\n      sload\n      swap1\n      0x0100\n      exp\n      swap1\n      div\n      0xffffffffffffffffffffffffffffffffffffffff\n      and\n        /* \"UniqueSkill.sol\":1217:1226  ownership */\n      0x01\n        /* \"UniqueSkill.sol\":1217:1249  ownership[currentNumberOfTokens] */\n      0x00\n        /* \"UniqueSkill.sol\":1227:1248  currentNumberOfTokens */\n      sload(0x04)\n        /* \"UniqueSkill.sol\":1217:1249  ownership[currentNumberOfTokens] */\n      dup2\n      mstore\n      0x20\n      add\n      swap1\n      dup2\n      mstore\n      0x20\n      add\n      0x00\n      keccak256\n      0x00\n        /* \"UniqueSkill.sol\":1217:1259  ownership[currentNumberOfTokens] = creator */\n      0x0100\n      exp\n      dup2\n      sload\n      dup2\n      0xffffffffffffffffffffffffffffffffffffffff\n      mul\n      not\n      and\n      swap1\n      dup4\n      0xffffffffffffffffffffffffffffffffffffffff\n      and\n      mul\n      or\n      swap1\n      sstore\n      pop\n        /* \"UniqueSkill.sol\":1270:1295  SkillData memory newSkill */\n      0x00\n        /* \"UniqueSkill.sol\":1298:1494  SkillData({... */\n      mload(0x40)\n      dup1\n      0xa0\n      add\n      0x40\n      mstore\n      dup1\n        /* \"UniqueSkill.sol\":1332:1353  currentNumberOfTokens */\n      sload(0x04)\n        /* \"UniqueSkill.sol\":1298:1494  SkillData({... */\n      dup2\n      mstore\n      0x20\n      add\n        /* \"UniqueSkill.sol\":1375:1380  skill */\n      dup7\n        /* \"UniqueSkill.sol\":1298:1494  SkillData({... */\n      dup2\n      mstore\n      0x20\n      add\n        /* \"UniqueSkill.sol\":1408:1419  description */\n      dup6\n        /* \"UniqueSkill.sol\":1298:1494  SkillData({... */\n      dup2\n      mstore\n      0x20\n      add\n        /* \"UniqueSkill.sol\":1448:1455  creator */\n      0x00\n      dup1\n      sload\n      swap1\n      0x0100\n      exp\n      swap1\n      div\n      0xffffffffffffffffffffffffffffffffffffffff\n      and\n        /* \"UniqueSkill.sol\":1298:1494  SkillData({... */\n      0xffffffffffffffffffffffffffffffffffffffff\n      and\n      dup2\n      mstore\n      0x20\n      add\n        /* \"UniqueSkill.sol\":1477:1482  value */\n      dup5\n        /* \"UniqueSkill.sol\":1298:1494  SkillData({... */\n      dup2\n      mstore\n      pop\n        /* \"UniqueSkill.sol\":1270:1494  SkillData memory newSkill = SkillData({... */\n      swap1\n      pop\n        /* \"UniqueSkill.sol\":1537:1545  newSkill */\n      dup1\n        /* \"UniqueSkill.sol\":1505:1511  skills */\n      0x02\n        /* \"UniqueSkill.sol\":1505:1534  skills[currentNumberOfTokens] */\n      0x00\n        /* \"UniqueSkill.sol\":1512:1533  currentNumberOfTokens */\n      sload(0x04)\n        /* \"UniqueSkill.sol\":1505:1534  skills[currentNumberOfTokens] */\n      dup2\n      mstore\n      0x20\n      add\n      swap1\n      dup2\n      mstore\n      0x20\n      add\n      0x00\n      keccak256\n        /* \"UniqueSkill.sol\":1505:1545  skills[currentNumberOfTokens] = newSkill */\n      0x00\n      dup3\n      add\n      mload\n      dup2\n      0x00\n      add\n      sstore\n      0x20\n      dup3\n      add\n      mload\n      dup2\n      0x01\n      add\n      swap1\n      dup1\n      mload\n      swap1\n      0x20\n      add\n      swap1\n      tag_76\n      swap3\n      swap2\n      swap1\n      tag_77\n      jump\t// in\n    tag_76:\n      pop\n      0x40\n      dup3\n      add\n      mload\n      dup2\n      0x02\n      add\n      swap1\n      dup1\n      mload\n      swap1\n      0x20\n      add\n      swap1\n      tag_78\n      swap3\n      swap2\n      swap1\n      tag_77\n      jump\t// in\n    tag_78:\n      pop\n      0x60\n      dup3\n      add\n      mload\n      dup2\n      0x03\n      add\n      exp(0x0100, 0x00)\n      dup2\n      sload\n      dup2\n      0xffffffffffffffffffffffffffffffffffffffff\n      mul\n      not\n      and\n      swap1\n      dup4\n      0xffffffffffffffffffffffffffffffffffffffff\n      and\n      mul\n      or\n      swap1\n      sstore\n      pop\n      0x80\n      dup3\n      add\n      mload\n      dup2\n      0x04\n      add\n      sstore\n      swap1\n      pop\n      pop\n        /* \"UniqueSkill.sol\":1556:1577  currentNumberOfTokens */\n      0x04\n      0x00\n        /* \"UniqueSkill.sol\":1556:1579  currentNumberOfTokens++ */\n      dup2\n      sload\n      dup1\n      swap3\n      swap2\n      swap1\n      tag_79\n      swap1\n      tag_80\n      jump\t// in\n    tag_79:\n      swap2\n      swap1\n      pop\n      sstore\n      pop\n        /* \"UniqueSkill.sol\":1066:1599  {... */\n      pop\n      pop\n        /* \"UniqueSkill.sol\":951:1599  function mint(string memory input, string memory skill, string memory description, uint value) public creatorAuth  {... */\n      pop\n      pop\n      pop\n      pop\n      jump\t// out\n        /* \"UniqueSkill.sol\":341:381  mapping(uint => SkillData) public skills */\n    tag_41:\n      mstore(0x20, 0x02)\n      dup1\n      0x00\n      mstore\n      keccak256(0x00, 0x40)\n      0x00\n      swap2\n      pop\n      swap1\n      pop\n      dup1\n      0x00\n      add\n      sload\n      swap1\n      dup1\n      0x01\n      add\n      dup1\n      sload\n      tag_81\n      swap1\n      tag_82\n      jump\t// in\n    tag_81:\n      dup1\n      0x1f\n      add\n      0x20\n      dup1\n      swap2\n      div\n      mul\n      0x20\n      add\n      mload(0x40)\n      swap1\n      dup2\n      add\n      0x40\n      mstore\n      dup1\n      swap3\n      swap2\n      swap1\n      dup2\n      dup2\n      mstore\n      0x20\n      add\n      dup3\n      dup1\n      sload\n      tag_83\n      swap1\n      tag_82\n      jump\t// in\n    tag_83:\n      dup1\n      iszero\n      tag_84\n      jumpi\n      dup1\n      0x1f\n      lt\n      tag_85\n      jumpi\n      0x0100\n      dup1\n      dup4\n      sload\n      div\n      mul\n      dup4\n      mstore\n      swap2\n      0x20\n      add\n      swap2\n      jump(tag_84)\n    tag_85:\n      dup3\n      add\n      swap2\n      swap1\n      0x00\n      mstore\n      keccak256(0x00, 0x20)\n      swap1\n    tag_86:\n      dup2\n      sload\n      dup2\n      mstore\n      swap1\n      0x01\n      add\n      swap1\n      0x20\n      add\n      dup1\n      dup4\n      gt\n      tag_86\n      jumpi\n      dup3\n      swap1\n      sub\n      0x1f\n      and\n      dup3\n      add\n      swap2\n    tag_84:\n      pop\n      pop\n      pop\n      pop\n      pop\n      swap1\n      dup1\n      0x02\n      add\n      dup1\n      sload\n      tag_87\n      swap1\n      tag_82\n      jump\t// in\n    tag_87:\n      dup1\n      0x1f\n      add\n      0x20\n      dup1\n      swap2\n      div\n      mul\n      0x20\n      add\n      mload(0x40)\n      swap1\n      dup2\n      add\n      0x40\n      mstore\n      dup1\n      swap3\n      swap2\n      swap1\n      dup2\n      dup2\n      mstore\n      0x20\n      add\n      dup3\n      dup1\n      sload\n      tag_88\n      swap1\n      tag_82\n      jump\t// in\n    tag_88:\n      dup1\n      iszero\n      tag_89\n      jumpi\n      dup1\n      0x1f\n      lt\n      tag_90\n      jumpi\n      0x0100\n      dup1\n      dup4\n      sload\n      div\n      mul\n      dup4\n      mstore\n      swap2\n      0x20\n      add\n      swap2\n      jump(tag_89)\n    tag_90:\n      dup3\n      add\n      swap2\n      swap1\n      0x00\n      mstore\n      keccak256(0x00, 0x20)\n      swap1\n    tag_91:\n      dup2\n      sload\n      dup2\n      mstore\n      swap1\n      0x01\n      add\n      swap1\n      0x20\n      add\n      dup1\n      dup4\n      gt\n      tag_91\n      jumpi\n      dup3\n      swap1\n      sub\n      0x1f\n      and\n      dup3\n      add\n      swap2\n    tag_89:\n      pop\n      pop\n      pop\n      pop\n      pop\n      swap1\n      dup1\n      0x03\n      add\n      0x00\n      swap1\n      sload\n      swap1\n      0x0100\n      exp\n      swap1\n      div\n      0xffffffffffffffffffffffffffffffffffffffff\n      and\n      swap1\n      dup1\n      0x04\n      add\n      sload\n      swap1\n      pop\n      dup6\n      jump\t// out\n        /* \"UniqueSkill.sol\":786:945  function ownerOf(uint tokenId) public view creatorAuth returns (address) {... */\n    tag_47:\n        /* \"UniqueSkill.sol\":850:857  address */\n      0x00\n        /* \"UniqueSkill.sol\":1662:1669  creator */\n      dup1\n      0x00\n      swap1\n      sload\n      swap1\n      0x0100\n      exp\n      swap1\n      div\n      0xffffffffffffffffffffffffffffffffffffffff\n      and\n        /* \"UniqueSkill.sol\":1648:1669  msg.sender == creator */\n      0xffffffffffffffffffffffffffffffffffffffff\n      and\n        /* \"UniqueSkill.sol\":1648:1658  msg.sender */\n      caller\n        /* \"UniqueSkill.sol\":1648:1669  msg.sender == creator */\n      0xffffffffffffffffffffffffffffffffffffffff\n      and\n      eq\n        /* \"UniqueSkill.sol\":1640:1670  require(msg.sender == creator) */\n      tag_93\n      jumpi\n      0x00\n      dup1\n      revert\n    tag_93:\n        /* \"UniqueSkill.sol\":870:888  address tokenOwner */\n      0x00\n        /* \"UniqueSkill.sol\":891:900  ownership */\n      0x01\n        /* \"UniqueSkill.sol\":891:909  ownership[tokenId] */\n      0x00\n        /* \"UniqueSkill.sol\":901:908  tokenId */\n      dup5\n        /* \"UniqueSkill.sol\":891:909  ownership[tokenId] */\n      dup2\n      mstore\n      0x20\n      add\n      swap1\n      dup2\n      mstore\n      0x20\n      add\n      0x00\n      keccak256\n      0x00\n      swap1\n      sload\n      swap1\n      0x0100\n      exp\n      swap1\n      div\n      0xffffffffffffffffffffffffffffffffffffffff\n      and\n        /* \"UniqueSkill.sol\":870:909  address tokenOwner = ownership[tokenId] */\n      swap1\n      pop\n        /* \"UniqueSkill.sol\":927:937  tokenOwner */\n      dup1\n        /* \"UniqueSkill.sol\":920:937  return tokenOwner */\n      swap2\n      pop\n      pop\n        /* \"UniqueSkill.sol\":786:945  function ownerOf(uint tokenId) public view creatorAuth returns (address) {... */\n      swap2\n      swap1\n      pop\n      jump\t// out\n        /* \"UniqueSkill.sol\":621:780  function balanceOf(address ownerAddress) public view creatorAuth returns (uint){... */\n    tag_53:\n        /* \"UniqueSkill.sol\":695:699  uint */\n      0x00\n        /* \"UniqueSkill.sol\":1662:1669  creator */\n      dup1\n      0x00\n      swap1\n      sload\n      swap1\n      0x0100\n      exp\n      swap1\n      div\n      0xffffffffffffffffffffffffffffffffffffffff\n      and\n        /* \"UniqueSkill.sol\":1648:1669  msg.sender == creator */\n      0xffffffffffffffffffffffffffffffffffffffff\n      and\n        /* \"UniqueSkill.sol\":1648:1658  msg.sender */\n      caller\n        /* \"UniqueSkill.sol\":1648:1669  msg.sender == creator */\n      0xffffffffffffffffffffffffffffffffffffffff\n      and\n      eq\n        /* \"UniqueSkill.sol\":1640:1670  require(msg.sender == creator) */\n      tag_96\n      jumpi\n      0x00\n      dup1\n      revert\n    tag_96:\n        /* \"UniqueSkill.sol\":711:723  uint balance */\n      0x00\n        /* \"UniqueSkill.sol\":727:739  ownerAddress */\n      dup3\n        /* \"UniqueSkill.sol\":727:747  ownerAddress.balance */\n      0xffffffffffffffffffffffffffffffffffffffff\n      and\n      balance\n        /* \"UniqueSkill.sol\":711:747  uint balance =  ownerAddress.balance */\n      swap1\n      pop\n        /* \"UniqueSkill.sol\":765:772  balance */\n      dup1\n        /* \"UniqueSkill.sol\":758:772  return balance */\n      swap2\n      pop\n      pop\n        /* \"UniqueSkill.sol\":621:780  function balanceOf(address ownerAddress) public view creatorAuth returns (uint){... */\n      swap2\n      swap1\n      pop\n      jump\t// out\n        /* \"UniqueSkill.sol\":293:334  mapping(uint => address) public ownership */\n    tag_58:\n      mstore(0x20, 0x01)\n      dup1\n      0x00\n      mstore\n      keccak256(0x00, 0x40)\n      0x00\n      swap2\n      pop\n      sload\n      swap1\n      0x0100\n      exp\n      swap1\n      div\n      0xffffffffffffffffffffffffffffffffffffffff\n      and\n      dup2\n      jump\t// out\n        /* \"UniqueSkill.sol\":1696:1892  function transfer(address toSend,uint tokenId) public creatorAuth {... */\n    tag_64:\n        /* \"UniqueSkill.sol\":1662:1669  creator */\n      0x00\n      dup1\n      sload\n      swap1\n      0x0100\n      exp\n      swap1\n      div\n      0xffffffffffffffffffffffffffffffffffffffff\n      and\n        /* \"UniqueSkill.sol\":1648:1669  msg.sender == creator */\n      0xffffffffffffffffffffffffffffffffffffffff\n      and\n        /* \"UniqueSkill.sol\":1648:1658  msg.sender */\n      caller\n        /* \"UniqueSkill.sol\":1648:1669  msg.sender == creator */\n      0xffffffffffffffffffffffffffffffffffffffff\n      and\n      eq\n        /* \"UniqueSkill.sol\":1640:1670  require(msg.sender == creator) */\n      tag_99\n      jumpi\n      0x00\n      dup1\n      revert\n    tag_99:\n        /* \"UniqueSkill.sol\":1794:1800  toSend */\n      dup2\n        /* \"UniqueSkill.sol\":1773:1782  ownership */\n      0x01\n        /* \"UniqueSkill.sol\":1773:1791  ownership[tokenId] */\n      0x00\n        /* \"UniqueSkill.sol\":1783:1790  tokenId */\n      dup4\n        /* \"UniqueSkill.sol\":1773:1791  ownership[tokenId] */\n      dup2\n      mstore\n      0x20\n      add\n      swap1\n      dup2\n      mstore\n      0x20\n      add\n      0x00\n      keccak256\n      0x00\n        /* \"UniqueSkill.sol\":1773:1800  ownership[tokenId] = toSend */\n      0x0100\n      exp\n      dup2\n      sload\n      dup2\n      0xffffffffffffffffffffffffffffffffffffffff\n      mul\n      not\n      and\n      swap1\n      dup4\n      0xffffffffffffffffffffffffffffffffffffffff\n      and\n      mul\n      or\n      swap1\n      sstore\n      pop\n        /* \"UniqueSkill.sol\":1828:1835  tokenId */\n      dup1\n        /* \"UniqueSkill.sol\":1811:1817  owners */\n      0x03\n        /* \"UniqueSkill.sol\":1811:1825  owners[toSend] */\n      0x00\n        /* \"UniqueSkill.sol\":1818:1824  toSend */\n      dup5\n        /* \"UniqueSkill.sol\":1811:1825  owners[toSend] */\n      0xffffffffffffffffffffffffffffffffffffffff\n      and\n      0xffffffffffffffffffffffffffffffffffffffff\n      and\n      dup2\n      mstore\n      0x20\n      add\n      swap1\n      dup2\n      mstore\n      0x20\n      add\n      0x00\n      keccak256\n        /* \"UniqueSkill.sol\":1811:1835  owners[toSend] = tokenId */\n      dup2\n      swap1\n      sstore\n      pop\n        /* \"UniqueSkill.sol\":1877:1883  toSend */\n      dup2\n        /* \"UniqueSkill.sol\":1846:1852  skills */\n      0x02\n        /* \"UniqueSkill.sol\":1846:1861  skills[tokenId] */\n      0x00\n        /* \"UniqueSkill.sol\":1853:1860  tokenId */\n      dup4\n        /* \"UniqueSkill.sol\":1846:1861  skills[tokenId] */\n      dup2\n      mstore\n      0x20\n      add\n      swap1\n      dup2\n      mstore\n      0x20\n      add\n      0x00\n      keccak256\n        /* \"UniqueSkill.sol\":1846:1874  skills[tokenId].currentOwner */\n      0x03\n      add\n      0x00\n        /* \"UniqueSkill.sol\":1846:1883  skills[tokenId].currentOwner = toSend */\n      0x0100\n      exp\n      dup2\n      sload\n      dup2\n      0xffffffffffffffffffffffffffffffffffffffff\n      mul\n      not\n      and\n      swap1\n      dup4\n      0xffffffffffffffffffffffffffffffffffffffff\n      and\n      mul\n      or\n      swap1\n      sstore\n      pop\n        /* \"UniqueSkill.sol\":1696:1892  function transfer(address toSend,uint tokenId) public creatorAuth {... */\n      pop\n      pop\n      jump\t// out\n    tag_77:\n      dup3\n      dup1\n      sload\n      tag_101\n      swap1\n      tag_82\n      jump\t// in\n    tag_101:\n      swap1\n      0x00\n      mstore\n      keccak256(0x00, 0x20)\n      swap1\n      0x1f\n      add\n      0x20\n      swap1\n      div\n      dup2\n      add\n      swap3\n      dup3\n      tag_103\n      jumpi\n      0x00\n      dup6\n      sstore\n      jump(tag_102)\n    tag_103:\n      dup3\n      0x1f\n      lt\n      tag_104\n      jumpi\n      dup1\n      mload\n      not(0xff)\n      and\n      dup4\n      dup1\n      add\n      or\n      dup6\n      sstore\n      jump(tag_102)\n    tag_104:\n      dup3\n      dup1\n      add\n      0x01\n      add\n      dup6\n      sstore\n      dup3\n      iszero\n      tag_102\n      jumpi\n      swap2\n      dup3\n      add\n    tag_105:\n      dup3\n      dup2\n      gt\n      iszero\n      tag_106\n      jumpi\n      dup3\n      mload\n      dup3\n      sstore\n      swap2\n      0x20\n      add\n      swap2\n      swap1\n      0x01\n      add\n      swap1\n      jump(tag_105)\n    tag_106:\n    tag_102:\n      pop\n      swap1\n      pop\n      tag_107\n      swap2\n      swap1\n      tag_108\n      jump\t// in\n    tag_107:\n      pop\n      swap1\n      jump\t// out\n    tag_108:\n    tag_109:\n      dup1\n      dup3\n      gt\n      iszero\n      tag_110\n      jumpi\n      0x00\n      dup2\n      0x00\n      swap1\n      sstore\n      pop\n      0x01\n      add\n      jump(tag_109)\n    tag_110:\n      pop\n      swap1\n      jump\t// out\n        /* \"#utility.yul\":7:84   */\n    tag_111:\n        /* \"#utility.yul\":44:51   */\n      0x00\n        /* \"#utility.yul\":73:78   */\n      dup2\n        /* \"#utility.yul\":62:78   */\n      swap1\n      pop\n        /* \"#utility.yul\":7:84   */\n      swap2\n      swap1\n      pop\n      jump\t// out\n        /* \"#utility.yul\":90:208   */\n    tag_112:\n        /* \"#utility.yul\":177:201   */\n      tag_146\n        /* \"#utility.yul\":195:200   */\n      dup2\n        /* \"#utility.yul\":177:201   */\n      tag_111\n      jump\t// in\n    tag_146:\n        /* \"#utility.yul\":172:175   */\n      dup3\n        /* \"#utility.yul\":165:202   */\n      mstore\n        /* \"#utility.yul\":90:208   */\n      pop\n      pop\n      jump\t// out\n        /* \"#utility.yul\":214:436   */\n    tag_17:\n        /* \"#utility.yul\":307:311   */\n      0x00\n        /* \"#utility.yul\":345:347   */\n      0x20\n        /* \"#utility.yul\":334:343   */\n      dup3\n        /* \"#utility.yul\":330:348   */\n      add\n        /* \"#utility.yul\":322:348   */\n      swap1\n      pop\n        /* \"#utility.yul\":358:429   */\n      tag_148\n        /* \"#utility.yul\":426:427   */\n      0x00\n        /* \"#utility.yul\":415:424   */\n      dup4\n        /* \"#utility.yul\":411:428   */\n      add\n        /* \"#utility.yul\":402:408   */\n      dup5\n        /* \"#utility.yul\":358:429   */\n      tag_112\n      jump\t// in\n    tag_148:\n        /* \"#utility.yul\":214:436   */\n      swap3\n      swap2\n      pop\n      pop\n      jump\t// out\n        /* \"#utility.yul\":442:517   */\n    tag_113:\n        /* \"#utility.yul\":475:481   */\n      0x00\n        /* \"#utility.yul\":508:510   */\n      0x40\n        /* \"#utility.yul\":502:511   */\n      mload\n        /* \"#utility.yul\":492:511   */\n      swap1\n      pop\n        /* \"#utility.yul\":442:517   */\n      swap1\n      jump\t// out\n        /* \"#utility.yul\":523:640   */\n    tag_114:\n        /* \"#utility.yul\":632:633   */\n      0x00\n        /* \"#utility.yul\":629:630   */\n      dup1\n        /* \"#utility.yul\":622:634   */\n      revert\n        /* \"#utility.yul\":646:763   */\n    tag_115:\n        /* \"#utility.yul\":755:756   */\n      0x00\n        /* \"#utility.yul\":752:753   */\n      dup1\n        /* \"#utility.yul\":745:757   */\n      revert\n        /* \"#utility.yul\":769:895   */\n    tag_116:\n        /* \"#utility.yul\":806:813   */\n      0x00\n        /* \"#utility.yul\":846:888   */\n      0xffffffffffffffffffffffffffffffffffffffff\n        /* \"#utility.yul\":839:844   */\n      dup3\n        /* \"#utility.yul\":835:889   */\n      and\n        /* \"#utility.yul\":824:889   */\n      swap1\n      pop\n        /* \"#utility.yul\":769:895   */\n      swap2\n      swap1\n      pop\n      jump\t// out\n        /* \"#utility.yul\":901:997   */\n    tag_117:\n        /* \"#utility.yul\":938:945   */\n      0x00\n        /* \"#utility.yul\":967:991   */\n      tag_154\n        /* \"#utility.yul\":985:990   */\n      dup3\n        /* \"#utility.yul\":967:991   */\n      tag_116\n      jump\t// in\n    tag_154:\n        /* \"#utility.yul\":956:991   */\n      swap1\n      pop\n        /* \"#utility.yul\":901:997   */\n      swap2\n      swap1\n      pop\n      jump\t// out\n        /* \"#utility.yul\":1003:1125   */\n    tag_118:\n        /* \"#utility.yul\":1076:1100   */\n      tag_156\n        /* \"#utility.yul\":1094:1099   */\n      dup2\n        /* \"#utility.yul\":1076:1100   */\n      tag_117\n      jump\t// in\n    tag_156:\n        /* \"#utility.yul\":1069:1074   */\n      dup2\n        /* \"#utility.yul\":1066:1101   */\n      eq\n        /* \"#utility.yul\":1056:1119   */\n      tag_157\n      jumpi\n        /* \"#utility.yul\":1115:1116   */\n      0x00\n        /* \"#utility.yul\":1112:1113   */\n      dup1\n        /* \"#utility.yul\":1105:1117   */\n      revert\n        /* \"#utility.yul\":1056:1119   */\n    tag_157:\n        /* \"#utility.yul\":1003:1125   */\n      pop\n      jump\t// out\n        /* \"#utility.yul\":1131:1270   */\n    tag_119:\n        /* \"#utility.yul\":1177:1182   */\n      0x00\n        /* \"#utility.yul\":1215:1221   */\n      dup2\n        /* \"#utility.yul\":1202:1222   */\n      calldataload\n        /* \"#utility.yul\":1193:1222   */\n      swap1\n      pop\n        /* \"#utility.yul\":1231:1264   */\n      tag_159\n        /* \"#utility.yul\":1258:1263   */\n      dup2\n        /* \"#utility.yul\":1231:1264   */\n      tag_118\n      jump\t// in\n    tag_159:\n        /* \"#utility.yul\":1131:1270   */\n      swap3\n      swap2\n      pop\n      pop\n      jump\t// out\n        /* \"#utility.yul\":1276:1605   */\n    tag_21:\n        /* \"#utility.yul\":1335:1341   */\n      0x00\n        /* \"#utility.yul\":1384:1386   */\n      0x20\n        /* \"#utility.yul\":1372:1381   */\n      dup3\n        /* \"#utility.yul\":1363:1370   */\n      dup5\n        /* \"#utility.yul\":1359:1382   */\n      sub\n        /* \"#utility.yul\":1355:1387   */\n      slt\n        /* \"#utility.yul\":1352:1471   */\n      iszero\n      tag_161\n      jumpi\n        /* \"#utility.yul\":1390:1469   */\n      tag_162\n      tag_114\n      jump\t// in\n    tag_162:\n        /* \"#utility.yul\":1352:1471   */\n    tag_161:\n        /* \"#utility.yul\":1510:1511   */\n      0x00\n        /* \"#utility.yul\":1535:1588   */\n      tag_163\n        /* \"#utility.yul\":1580:1587   */\n      dup5\n        /* \"#utility.yul\":1571:1577   */\n      dup3\n        /* \"#utility.yul\":1560:1569   */\n      dup6\n        /* \"#utility.yul\":1556:1578   */\n      add\n        /* \"#utility.yul\":1535:1588   */\n      tag_119\n      jump\t// in\n    tag_163:\n        /* \"#utility.yul\":1525:1588   */\n      swap2\n      pop\n        /* \"#utility.yul\":1481:1598   */\n      pop\n        /* \"#utility.yul\":1276:1605   */\n      swap3\n      swap2\n      pop\n      pop\n      jump\t// out\n        /* \"#utility.yul\":1611:1733   */\n    tag_120:\n        /* \"#utility.yul\":1684:1708   */\n      tag_165\n        /* \"#utility.yul\":1702:1707   */\n      dup2\n        /* \"#utility.yul\":1684:1708   */\n      tag_111\n      jump\t// in\n    tag_165:\n        /* \"#utility.yul\":1677:1682   */\n      dup2\n        /* \"#utility.yul\":1674:1709   */\n      eq\n        /* \"#utility.yul\":1664:1727   */\n      tag_166\n      jumpi\n        /* \"#utility.yul\":1723:1724   */\n      0x00\n        /* \"#utility.yul\":1720:1721   */\n      dup1\n        /* \"#utility.yul\":1713:1725   */\n      revert\n        /* \"#utility.yul\":1664:1727   */\n    tag_166:\n        /* \"#utility.yul\":1611:1733   */\n      pop\n      jump\t// out\n        /* \"#utility.yul\":1739:1878   */\n    tag_121:\n        /* \"#utility.yul\":1785:1790   */\n      0x00\n        /* \"#utility.yul\":1823:1829   */\n      dup2\n        /* \"#utility.yul\":1810:1830   */\n      calldataload\n        /* \"#utility.yul\":1801:1830   */\n      swap1\n      pop\n        /* \"#utility.yul\":1839:1872   */\n      tag_168\n        /* \"#utility.yul\":1866:1871   */\n      dup2\n        /* \"#utility.yul\":1839:1872   */\n      tag_120\n      jump\t// in\n    tag_168:\n        /* \"#utility.yul\":1739:1878   */\n      swap3\n      swap2\n      pop\n      pop\n      jump\t// out\n        /* \"#utility.yul\":1884:2213   */\n    tag_26:\n        /* \"#utility.yul\":1943:1949   */\n      0x00\n        /* \"#utility.yul\":1992:1994   */\n      0x20\n        /* \"#utility.yul\":1980:1989   */\n      dup3\n        /* \"#utility.yul\":1971:1978   */\n      dup5\n        /* \"#utility.yul\":1967:1990   */\n      sub\n        /* \"#utility.yul\":1963:1995   */\n      slt\n        /* \"#utility.yul\":1960:2079   */\n      iszero\n      tag_170\n      jumpi\n        /* \"#utility.yul\":1998:2077   */\n      tag_171\n      tag_114\n      jump\t// in\n    tag_171:\n        /* \"#utility.yul\":1960:2079   */\n    tag_170:\n        /* \"#utility.yul\":2118:2119   */\n      0x00\n        /* \"#utility.yul\":2143:2196   */\n      tag_172\n        /* \"#utility.yul\":2188:2195   */\n      dup5\n        /* \"#utility.yul\":2179:2185   */\n      dup3\n        /* \"#utility.yul\":2168:2177   */\n      dup6\n        /* \"#utility.yul\":2164:2186   */\n      add\n        /* \"#utility.yul\":2143:2196   */\n      tag_121\n      jump\t// in\n    tag_172:\n        /* \"#utility.yul\":2133:2196   */\n      swap2\n      pop\n        /* \"#utility.yul\":2089:2206   */\n      pop\n        /* \"#utility.yul\":1884:2213   */\n      swap3\n      swap2\n      pop\n      pop\n      jump\t// out\n        /* \"#utility.yul\":2219:2838   */\n    tag_31:\n        /* \"#utility.yul\":2296:2302   */\n      0x00\n        /* \"#utility.yul\":2304:2310   */\n      dup1\n        /* \"#utility.yul\":2312:2318   */\n      0x00\n        /* \"#utility.yul\":2361:2363   */\n      0x60\n        /* \"#utility.yul\":2349:2358   */\n      dup5\n        /* \"#utility.yul\":2340:2347   */\n      dup7\n        /* \"#utility.yul\":2336:2359   */\n      sub\n        /* \"#utility.yul\":2332:2364   */\n      slt\n        /* \"#utility.yul\":2329:2448   */\n      iszero\n      tag_174\n      jumpi\n        /* \"#utility.yul\":2367:2446   */\n      tag_175\n      tag_114\n      jump\t// in\n    tag_175:\n        /* \"#utility.yul\":2329:2448   */\n    tag_174:\n        /* \"#utility.yul\":2487:2488   */\n      0x00\n        /* \"#utility.yul\":2512:2565   */\n      tag_176\n        /* \"#utility.yul\":2557:2564   */\n      dup7\n        /* \"#utility.yul\":2548:2554   */\n      dup3\n        /* \"#utility.yul\":2537:2546   */\n      dup8\n        /* \"#utility.yul\":2533:2555   */\n      add\n        /* \"#utility.yul\":2512:2565   */\n      tag_119\n      jump\t// in\n    tag_176:\n        /* \"#utility.yul\":2502:2565   */\n      swap4\n      pop\n        /* \"#utility.yul\":2458:2575   */\n      pop\n        /* \"#utility.yul\":2614:2616   */\n      0x20\n        /* \"#utility.yul\":2640:2693   */\n      tag_177\n        /* \"#utility.yul\":2685:2692   */\n      dup7\n        /* \"#utility.yul\":2676:2682   */\n      dup3\n        /* \"#utility.yul\":2665:2674   */\n      dup8\n        /* \"#utility.yul\":2661:2683   */\n      add\n        /* \"#utility.yul\":2640:2693   */\n      tag_119\n      jump\t// in\n    tag_177:\n        /* \"#utility.yul\":2630:2693   */\n      swap3\n      pop\n        /* \"#utility.yul\":2585:2703   */\n      pop\n        /* \"#utility.yul\":2742:2744   */\n      0x40\n        /* \"#utility.yul\":2768:2821   */\n      tag_178\n        /* \"#utility.yul\":2813:2820   */\n      dup7\n        /* \"#utility.yul\":2804:2810   */\n      dup3\n        /* \"#utility.yul\":2793:2802   */\n      dup8\n        /* \"#utility.yul\":2789:2811   */\n      add\n        /* \"#utility.yul\":2768:2821   */\n      tag_121\n      jump\t// in\n    tag_178:\n        /* \"#utility.yul\":2758:2821   */\n      swap2\n      pop\n        /* \"#utility.yul\":2713:2831   */\n      pop\n        /* \"#utility.yul\":2219:2838   */\n      swap3\n      pop\n      swap3\n      pop\n      swap3\n      jump\t// out\n        /* \"#utility.yul\":2844:2961   */\n    tag_122:\n        /* \"#utility.yul\":2953:2954   */\n      0x00\n        /* \"#utility.yul\":2950:2951   */\n      dup1\n        /* \"#utility.yul\":2943:2955   */\n      revert\n        /* \"#utility.yul\":2967:3084   */\n    tag_123:\n        /* \"#utility.yul\":3076:3077   */\n      0x00\n        /* \"#utility.yul\":3073:3074   */\n      dup1\n        /* \"#utility.yul\":3066:3078   */\n      revert\n        /* \"#utility.yul\":3090:3192   */\n    tag_124:\n        /* \"#utility.yul\":3131:3137   */\n      0x00\n        /* \"#utility.yul\":3182:3184   */\n      0x1f\n        /* \"#utility.yul\":3178:3185   */\n      not\n        /* \"#utility.yul\":3173:3175   */\n      0x1f\n        /* \"#utility.yul\":3166:3171   */\n      dup4\n        /* \"#utility.yul\":3162:3176   */\n      add\n        /* \"#utility.yul\":3158:3186   */\n      and\n        /* \"#utility.yul\":3148:3186   */\n      swap1\n      pop\n        /* \"#utility.yul\":3090:3192   */\n      swap2\n      swap1\n      pop\n      jump\t// out\n        /* \"#utility.yul\":3198:3378   */\n    tag_125:\n        /* \"#utility.yul\":3246:3323   */\n      0x4e487b7100000000000000000000000000000000000000000000000000000000\n        /* \"#utility.yul\":3243:3244   */\n      0x00\n        /* \"#utility.yul\":3236:3324   */\n      mstore\n        /* \"#utility.yul\":3343:3347   */\n      0x41\n        /* \"#utility.yul\":3340:3341   */\n      0x04\n        /* \"#utility.yul\":3333:3348   */\n      mstore\n        /* \"#utility.yul\":3367:3371   */\n      0x24\n        /* \"#utility.yul\":3364:3365   */\n      0x00\n        /* \"#utility.yul\":3357:3372   */\n      revert\n        /* \"#utility.yul\":3384:3665   */\n    tag_126:\n        /* \"#utility.yul\":3467:3494   */\n      tag_184\n        /* \"#utility.yul\":3489:3493   */\n      dup3\n        /* \"#utility.yul\":3467:3494   */\n      tag_124\n      jump\t// in\n    tag_184:\n        /* \"#utility.yul\":3459:3465   */\n      dup2\n        /* \"#utility.yul\":3455:3495   */\n      add\n        /* \"#utility.yul\":3597:3603   */\n      dup2\n        /* \"#utility.yul\":3585:3595   */\n      dup2\n        /* \"#utility.yul\":3582:3604   */\n      lt\n        /* \"#utility.yul\":3561:3579   */\n      0xffffffffffffffff\n        /* \"#utility.yul\":3549:3559   */\n      dup3\n        /* \"#utility.yul\":3546:3580   */\n      gt\n        /* \"#utility.yul\":3543:3605   */\n      or\n        /* \"#utility.yul\":3540:3628   */\n      iszero\n      tag_185\n      jumpi\n        /* \"#utility.yul\":3608:3626   */\n      tag_186\n      tag_125\n      jump\t// in\n    tag_186:\n        /* \"#utility.yul\":3540:3628   */\n    tag_185:\n        /* \"#utility.yul\":3648:3658   */\n      dup1\n        /* \"#utility.yul\":3644:3646   */\n      0x40\n        /* \"#utility.yul\":3637:3659   */\n      mstore\n        /* \"#utility.yul\":3427:3665   */\n      pop\n        /* \"#utility.yul\":3384:3665   */\n      pop\n      pop\n      jump\t// out\n        /* \"#utility.yul\":3671:3800   */\n    tag_127:\n        /* \"#utility.yul\":3705:3711   */\n      0x00\n        /* \"#utility.yul\":3732:3752   */\n      tag_188\n      tag_113\n      jump\t// in\n    tag_188:\n        /* \"#utility.yul\":3722:3752   */\n      swap1\n      pop\n        /* \"#utility.yul\":3761:3794   */\n      tag_189\n        /* \"#utility.yul\":3789:3793   */\n      dup3\n        /* \"#utility.yul\":3781:3787   */\n      dup3\n        /* \"#utility.yul\":3761:3794   */\n      tag_126\n      jump\t// in\n    tag_189:\n        /* \"#utility.yul\":3671:3800   */\n      swap2\n      swap1\n      pop\n      jump\t// out\n        /* \"#utility.yul\":3806:4114   */\n    tag_128:\n        /* \"#utility.yul\":3868:3872   */\n      0x00\n        /* \"#utility.yul\":3958:3976   */\n      0xffffffffffffffff\n        /* \"#utility.yul\":3950:3956   */\n      dup3\n        /* \"#utility.yul\":3947:3977   */\n      gt\n        /* \"#utility.yul\":3944:4000   */\n      iszero\n      tag_191\n      jumpi\n        /* \"#utility.yul\":3980:3998   */\n      tag_192\n      tag_125\n      jump\t// in\n    tag_192:\n        /* \"#utility.yul\":3944:4000   */\n    tag_191:\n        /* \"#utility.yul\":4018:4047   */\n      tag_193\n        /* \"#utility.yul\":4040:4046   */\n      dup3\n        /* \"#utility.yul\":4018:4047   */\n      tag_124\n      jump\t// in\n    tag_193:\n        /* \"#utility.yul\":4010:4047   */\n      swap1\n      pop\n        /* \"#utility.yul\":4102:4106   */\n      0x20\n        /* \"#utility.yul\":4096:4100   */\n      dup2\n        /* \"#utility.yul\":4092:4107   */\n      add\n        /* \"#utility.yul\":4084:4107   */\n      swap1\n      pop\n        /* \"#utility.yul\":3806:4114   */\n      swap2\n      swap1\n      pop\n      jump\t// out\n        /* \"#utility.yul\":4120:4274   */\n    tag_129:\n        /* \"#utility.yul\":4204:4210   */\n      dup3\n        /* \"#utility.yul\":4199:4202   */\n      dup2\n        /* \"#utility.yul\":4194:4197   */\n      dup4\n        /* \"#utility.yul\":4181:4211   */\n      calldatacopy\n        /* \"#utility.yul\":4266:4267   */\n      0x00\n        /* \"#utility.yul\":4257:4263   */\n      dup4\n        /* \"#utility.yul\":4252:4255   */\n      dup4\n        /* \"#utility.yul\":4248:4264   */\n      add\n        /* \"#utility.yul\":4241:4268   */\n      mstore\n        /* \"#utility.yul\":4120:4274   */\n      pop\n      pop\n      pop\n      jump\t// out\n        /* \"#utility.yul\":4280:4692   */\n    tag_130:\n        /* \"#utility.yul\":4358:4363   */\n      0x00\n        /* \"#utility.yul\":4383:4449   */\n      tag_196\n        /* \"#utility.yul\":4399:4448   */\n      tag_197\n        /* \"#utility.yul\":4441:4447   */\n      dup5\n        /* \"#utility.yul\":4399:4448   */\n      tag_128\n      jump\t// in\n    tag_197:\n        /* \"#utility.yul\":4383:4449   */\n      tag_127\n      jump\t// in\n    tag_196:\n        /* \"#utility.yul\":4374:4449   */\n      swap1\n      pop\n        /* \"#utility.yul\":4472:4478   */\n      dup3\n        /* \"#utility.yul\":4465:4470   */\n      dup2\n        /* \"#utility.yul\":4458:4479   */\n      mstore\n        /* \"#utility.yul\":4510:4514   */\n      0x20\n        /* \"#utility.yul\":4503:4508   */\n      dup2\n        /* \"#utility.yul\":4499:4515   */\n      add\n        /* \"#utility.yul\":4548:4551   */\n      dup5\n        /* \"#utility.yul\":4539:4545   */\n      dup5\n        /* \"#utility.yul\":4534:4537   */\n      dup5\n        /* \"#utility.yul\":4530:4546   */\n      add\n        /* \"#utility.yul\":4527:4552   */\n      gt\n        /* \"#utility.yul\":4524:4636   */\n      iszero\n      tag_198\n      jumpi\n        /* \"#utility.yul\":4555:4634   */\n      tag_199\n      tag_123\n      jump\t// in\n    tag_199:\n        /* \"#utility.yul\":4524:4636   */\n    tag_198:\n        /* \"#utility.yul\":4645:4686   */\n      tag_200\n        /* \"#utility.yul\":4679:4685   */\n      dup5\n        /* \"#utility.yul\":4674:4677   */\n      dup3\n        /* \"#utility.yul\":4669:4672   */\n      dup6\n        /* \"#utility.yul\":4645:4686   */\n      tag_129\n      jump\t// in\n    tag_200:\n        /* \"#utility.yul\":4364:4692   */\n      pop\n        /* \"#utility.yul\":4280:4692   */\n      swap4\n      swap3\n      pop\n      pop\n      pop\n      jump\t// out\n        /* \"#utility.yul\":4712:5052   */\n    tag_131:\n        /* \"#utility.yul\":4768:4773   */\n      0x00\n        /* \"#utility.yul\":4817:4820   */\n      dup3\n        /* \"#utility.yul\":4810:4814   */\n      0x1f\n        /* \"#utility.yul\":4802:4808   */\n      dup4\n        /* \"#utility.yul\":4798:4815   */\n      add\n        /* \"#utility.yul\":4794:4821   */\n      slt\n        /* \"#utility.yul\":4784:4906   */\n      tag_202\n      jumpi\n        /* \"#utility.yul\":4825:4904   */\n      tag_203\n      tag_122\n      jump\t// in\n    tag_203:\n        /* \"#utility.yul\":4784:4906   */\n    tag_202:\n        /* \"#utility.yul\":4942:4948   */\n      dup2\n        /* \"#utility.yul\":4929:4949   */\n      calldataload\n        /* \"#utility.yul\":4967:5046   */\n      tag_204\n        /* \"#utility.yul\":5042:5045   */\n      dup5\n        /* \"#utility.yul\":5034:5040   */\n      dup3\n        /* \"#utility.yul\":5027:5031   */\n      0x20\n        /* \"#utility.yul\":5019:5025   */\n      dup7\n        /* \"#utility.yul\":5015:5032   */\n      add\n        /* \"#utility.yul\":4967:5046   */\n      tag_130\n      jump\t// in\n    tag_204:\n        /* \"#utility.yul\":4958:5046   */\n      swap2\n      pop\n        /* \"#utility.yul\":4774:5052   */\n      pop\n        /* \"#utility.yul\":4712:5052   */\n      swap3\n      swap2\n      pop\n      pop\n      jump\t// out\n        /* \"#utility.yul\":5058:6363   */\n    tag_36:\n        /* \"#utility.yul\":5174:5180   */\n      0x00\n        /* \"#utility.yul\":5182:5188   */\n      dup1\n        /* \"#utility.yul\":5190:5196   */\n      0x00\n        /* \"#utility.yul\":5198:5204   */\n      dup1\n        /* \"#utility.yul\":5247:5250   */\n      0x80\n        /* \"#utility.yul\":5235:5244   */\n      dup6\n        /* \"#utility.yul\":5226:5233   */\n      dup8\n        /* \"#utility.yul\":5222:5245   */\n      sub\n        /* \"#utility.yul\":5218:5251   */\n      slt\n        /* \"#utility.yul\":5215:5335   */\n      iszero\n      tag_206\n      jumpi\n        /* \"#utility.yul\":5254:5333   */\n      tag_207\n      tag_114\n      jump\t// in\n    tag_207:\n        /* \"#utility.yul\":5215:5335   */\n    tag_206:\n        /* \"#utility.yul\":5402:5403   */\n      0x00\n        /* \"#utility.yul\":5391:5400   */\n      dup6\n        /* \"#utility.yul\":5387:5404   */\n      add\n        /* \"#utility.yul\":5374:5405   */\n      calldataload\n        /* \"#utility.yul\":5432:5450   */\n      0xffffffffffffffff\n        /* \"#utility.yul\":5424:5430   */\n      dup2\n        /* \"#utility.yul\":5421:5451   */\n      gt\n        /* \"#utility.yul\":5418:5535   */\n      iszero\n      tag_208\n      jumpi\n        /* \"#utility.yul\":5454:5533   */\n      tag_209\n      tag_115\n      jump\t// in\n    tag_209:\n        /* \"#utility.yul\":5418:5535   */\n    tag_208:\n        /* \"#utility.yul\":5559:5622   */\n      tag_210\n        /* \"#utility.yul\":5614:5621   */\n      dup8\n        /* \"#utility.yul\":5605:5611   */\n      dup3\n        /* \"#utility.yul\":5594:5603   */\n      dup9\n        /* \"#utility.yul\":5590:5612   */\n      add\n        /* \"#utility.yul\":5559:5622   */\n      tag_131\n      jump\t// in\n    tag_210:\n        /* \"#utility.yul\":5549:5622   */\n      swap5\n      pop\n        /* \"#utility.yul\":5345:5632   */\n      pop\n        /* \"#utility.yul\":5699:5701   */\n      0x20\n        /* \"#utility.yul\":5688:5697   */\n      dup6\n        /* \"#utility.yul\":5684:5702   */\n      add\n        /* \"#utility.yul\":5671:5703   */\n      calldataload\n        /* \"#utility.yul\":5730:5748   */\n      0xffffffffffffffff\n        /* \"#utility.yul\":5722:5728   */\n      dup2\n        /* \"#utility.yul\":5719:5749   */\n      gt\n        /* \"#utility.yul\":5716:5833   */\n      iszero\n      tag_211\n      jumpi\n        /* \"#utility.yul\":5752:5831   */\n      tag_212\n      tag_115\n      jump\t// in\n    tag_212:\n        /* \"#utility.yul\":5716:5833   */\n    tag_211:\n        /* \"#utility.yul\":5857:5920   */\n      tag_213\n        /* \"#utility.yul\":5912:5919   */\n      dup8\n        /* \"#utility.yul\":5903:5909   */\n      dup3\n        /* \"#utility.yul\":5892:5901   */\n      dup9\n        /* \"#utility.yul\":5888:5910   */\n      add\n        /* \"#utility.yul\":5857:5920   */\n      tag_131\n      jump\t// in\n    tag_213:\n        /* \"#utility.yul\":5847:5920   */\n      swap4\n      pop\n        /* \"#utility.yul\":5642:5930   */\n      pop\n        /* \"#utility.yul\":5997:5999   */\n      0x40\n        /* \"#utility.yul\":5986:5995   */\n      dup6\n        /* \"#utility.yul\":5982:6000   */\n      add\n        /* \"#utility.yul\":5969:6001   */\n      calldataload\n        /* \"#utility.yul\":6028:6046   */\n      0xffffffffffffffff\n        /* \"#utility.yul\":6020:6026   */\n      dup2\n        /* \"#utility.yul\":6017:6047   */\n      gt\n        /* \"#utility.yul\":6014:6131   */\n      iszero\n      tag_214\n      jumpi\n        /* \"#utility.yul\":6050:6129   */\n      tag_215\n      tag_115\n      jump\t// in\n    tag_215:\n        /* \"#utility.yul\":6014:6131   */\n    tag_214:\n        /* \"#utility.yul\":6155:6218   */\n      tag_216\n        /* \"#utility.yul\":6210:6217   */\n      dup8\n        /* \"#utility.yul\":6201:6207   */\n      dup3\n        /* \"#utility.yul\":6190:6199   */\n      dup9\n        /* \"#utility.yul\":6186:6208   */\n      add\n        /* \"#utility.yul\":6155:6218   */\n      tag_131\n      jump\t// in\n    tag_216:\n        /* \"#utility.yul\":6145:6218   */\n      swap3\n      pop\n        /* \"#utility.yul\":5940:6228   */\n      pop\n        /* \"#utility.yul\":6267:6269   */\n      0x60\n        /* \"#utility.yul\":6293:6346   */\n      tag_217\n        /* \"#utility.yul\":6338:6345   */\n      dup8\n        /* \"#utility.yul\":6329:6335   */\n      dup3\n        /* \"#utility.yul\":6318:6327   */\n      dup9\n        /* \"#utility.yul\":6314:6336   */\n      add\n        /* \"#utility.yul\":6293:6346   */\n      tag_121\n      jump\t// in\n    tag_217:\n        /* \"#utility.yul\":6283:6346   */\n      swap2\n      pop\n        /* \"#utility.yul\":6238:6356   */\n      pop\n        /* \"#utility.yul\":5058:6363   */\n      swap3\n      swap6\n      swap2\n      swap5\n      pop\n      swap3\n      pop\n      jump\t// out\n        /* \"#utility.yul\":6369:6468   */\n    tag_132:\n        /* \"#utility.yul\":6421:6427   */\n      0x00\n        /* \"#utility.yul\":6455:6460   */\n      dup2\n        /* \"#utility.yul\":6449:6461   */\n      mload\n        /* \"#utility.yul\":6439:6461   */\n      swap1\n      pop\n        /* \"#utility.yul\":6369:6468   */\n      swap2\n      swap1\n      pop\n      jump\t// out\n        /* \"#utility.yul\":6474:6643   */\n    tag_133:\n        /* \"#utility.yul\":6558:6569   */\n      0x00\n        /* \"#utility.yul\":6592:6598   */\n      dup3\n        /* \"#utility.yul\":6587:6590   */\n      dup3\n        /* \"#utility.yul\":6580:6599   */\n      mstore\n        /* \"#utility.yul\":6632:6636   */\n      0x20\n        /* \"#utility.yul\":6627:6630   */\n      dup3\n        /* \"#utility.yul\":6623:6637   */\n      add\n        /* \"#utility.yul\":6608:6637   */\n      swap1\n      pop\n        /* \"#utility.yul\":6474:6643   */\n      swap3\n      swap2\n      pop\n      pop\n      jump\t// out\n        /* \"#utility.yul\":6649:6956   */\n    tag_134:\n        /* \"#utility.yul\":6717:6718   */\n      0x00\n        /* \"#utility.yul\":6727:6840   */\n    tag_221:\n        /* \"#utility.yul\":6741:6747   */\n      dup4\n        /* \"#utility.yul\":6738:6739   */\n      dup2\n        /* \"#utility.yul\":6735:6748   */\n      lt\n        /* \"#utility.yul\":6727:6840   */\n      iszero\n      tag_223\n      jumpi\n        /* \"#utility.yul\":6826:6827   */\n      dup1\n        /* \"#utility.yul\":6821:6824   */\n      dup3\n        /* \"#utility.yul\":6817:6828   */\n      add\n        /* \"#utility.yul\":6811:6829   */\n      mload\n        /* \"#utility.yul\":6807:6808   */\n      dup2\n        /* \"#utility.yul\":6802:6805   */\n      dup5\n        /* \"#utility.yul\":6798:6809   */\n      add\n        /* \"#utility.yul\":6791:6830   */\n      mstore\n        /* \"#utility.yul\":6763:6765   */\n      0x20\n        /* \"#utility.yul\":6760:6761   */\n      dup2\n        /* \"#utility.yul\":6756:6766   */\n      add\n        /* \"#utility.yul\":6751:6766   */\n      swap1\n      pop\n        /* \"#utility.yul\":6727:6840   */\n      jump(tag_221)\n    tag_223:\n        /* \"#utility.yul\":6858:6864   */\n      dup4\n        /* \"#utility.yul\":6855:6856   */\n      dup2\n        /* \"#utility.yul\":6852:6865   */\n      gt\n        /* \"#utility.yul\":6849:6950   */\n      iszero\n      tag_224\n      jumpi\n        /* \"#utility.yul\":6938:6939   */\n      0x00\n        /* \"#utility.yul\":6929:6935   */\n      dup5\n        /* \"#utility.yul\":6924:6927   */\n      dup5\n        /* \"#utility.yul\":6920:6936   */\n      add\n        /* \"#utility.yul\":6913:6940   */\n      mstore\n        /* \"#utility.yul\":6849:6950   */\n    tag_224:\n        /* \"#utility.yul\":6698:6956   */\n      pop\n        /* \"#utility.yul\":6649:6956   */\n      pop\n      pop\n      pop\n      jump\t// out\n        /* \"#utility.yul\":6962:7326   */\n    tag_135:\n        /* \"#utility.yul\":7050:7053   */\n      0x00\n        /* \"#utility.yul\":7078:7117   */\n      tag_226\n        /* \"#utility.yul\":7111:7116   */\n      dup3\n        /* \"#utility.yul\":7078:7117   */\n      tag_132\n      jump\t// in\n    tag_226:\n        /* \"#utility.yul\":7133:7204   */\n      tag_227\n        /* \"#utility.yul\":7197:7203   */\n      dup2\n        /* \"#utility.yul\":7192:7195   */\n      dup6\n        /* \"#utility.yul\":7133:7204   */\n      tag_133\n      jump\t// in\n    tag_227:\n        /* \"#utility.yul\":7126:7204   */\n      swap4\n      pop\n        /* \"#utility.yul\":7213:7265   */\n      tag_228\n        /* \"#utility.yul\":7258:7264   */\n      dup2\n        /* \"#utility.yul\":7253:7256   */\n      dup6\n        /* \"#utility.yul\":7246:7250   */\n      0x20\n        /* \"#utility.yul\":7239:7244   */\n      dup7\n        /* \"#utility.yul\":7235:7251   */\n      add\n        /* \"#utility.yul\":7213:7265   */\n      tag_134\n      jump\t// in\n    tag_228:\n        /* \"#utility.yul\":7290:7319   */\n      tag_229\n        /* \"#utility.yul\":7312:7318   */\n      dup2\n        /* \"#utility.yul\":7290:7319   */\n      tag_124\n      jump\t// in\n    tag_229:\n        /* \"#utility.yul\":7285:7288   */\n      dup5\n        /* \"#utility.yul\":7281:7320   */\n      add\n        /* \"#utility.yul\":7274:7320   */\n      swap2\n      pop\n        /* \"#utility.yul\":7054:7326   */\n      pop\n        /* \"#utility.yul\":6962:7326   */\n      swap3\n      swap2\n      pop\n      pop\n      jump\t// out\n        /* \"#utility.yul\":7332:7450   */\n    tag_136:\n        /* \"#utility.yul\":7419:7443   */\n      tag_231\n        /* \"#utility.yul\":7437:7442   */\n      dup2\n        /* \"#utility.yul\":7419:7443   */\n      tag_117\n      jump\t// in\n    tag_231:\n        /* \"#utility.yul\":7414:7417   */\n      dup3\n        /* \"#utility.yul\":7407:7444   */\n      mstore\n        /* \"#utility.yul\":7332:7450   */\n      pop\n      pop\n      jump\t// out\n        /* \"#utility.yul\":7456:8302   */\n    tag_43:\n        /* \"#utility.yul\":7701:7705   */\n      0x00\n        /* \"#utility.yul\":7739:7742   */\n      0xa0\n        /* \"#utility.yul\":7728:7737   */\n      dup3\n        /* \"#utility.yul\":7724:7743   */\n      add\n        /* \"#utility.yul\":7716:7743   */\n      swap1\n      pop\n        /* \"#utility.yul\":7753:7824   */\n      tag_233\n        /* \"#utility.yul\":7821:7822   */\n      0x00\n        /* \"#utility.yul\":7810:7819   */\n      dup4\n        /* \"#utility.yul\":7806:7823   */\n      add\n        /* \"#utility.yul\":7797:7803   */\n      dup9\n        /* \"#utility.yul\":7753:7824   */\n      tag_112\n      jump\t// in\n    tag_233:\n        /* \"#utility.yul\":7871:7880   */\n      dup2\n        /* \"#utility.yul\":7865:7869   */\n      dup2\n        /* \"#utility.yul\":7861:7881   */\n      sub\n        /* \"#utility.yul\":7856:7858   */\n      0x20\n        /* \"#utility.yul\":7845:7854   */\n      dup4\n        /* \"#utility.yul\":7841:7859   */\n      add\n        /* \"#utility.yul\":7834:7882   */\n      mstore\n        /* \"#utility.yul\":7899:7977   */\n      tag_234\n        /* \"#utility.yul\":7972:7976   */\n      dup2\n        /* \"#utility.yul\":7963:7969   */\n      dup8\n        /* \"#utility.yul\":7899:7977   */\n      tag_135\n      jump\t// in\n    tag_234:\n        /* \"#utility.yul\":7891:7977   */\n      swap1\n      pop\n        /* \"#utility.yul\":8024:8033   */\n      dup2\n        /* \"#utility.yul\":8018:8022   */\n      dup2\n        /* \"#utility.yul\":8014:8034   */\n      sub\n        /* \"#utility.yul\":8009:8011   */\n      0x40\n        /* \"#utility.yul\":7998:8007   */\n      dup4\n        /* \"#utility.yul\":7994:8012   */\n      add\n        /* \"#utility.yul\":7987:8035   */\n      mstore\n        /* \"#utility.yul\":8052:8130   */\n      tag_235\n        /* \"#utility.yul\":8125:8129   */\n      dup2\n        /* \"#utility.yul\":8116:8122   */\n      dup7\n        /* \"#utility.yul\":8052:8130   */\n      tag_135\n      jump\t// in\n    tag_235:\n        /* \"#utility.yul\":8044:8130   */\n      swap1\n      pop\n        /* \"#utility.yul\":8140:8212   */\n      tag_236\n        /* \"#utility.yul\":8208:8210   */\n      0x60\n        /* \"#utility.yul\":8197:8206   */\n      dup4\n        /* \"#utility.yul\":8193:8211   */\n      add\n        /* \"#utility.yul\":8184:8190   */\n      dup6\n        /* \"#utility.yul\":8140:8212   */\n      tag_136\n      jump\t// in\n    tag_236:\n        /* \"#utility.yul\":8222:8295   */\n      tag_237\n        /* \"#utility.yul\":8290:8293   */\n      0x80\n        /* \"#utility.yul\":8279:8288   */\n      dup4\n        /* \"#utility.yul\":8275:8294   */\n      add\n        /* \"#utility.yul\":8266:8272   */\n      dup5\n        /* \"#utility.yul\":8222:8295   */\n      tag_112\n      jump\t// in\n    tag_237:\n        /* \"#utility.yul\":7456:8302   */\n      swap7\n      swap6\n      pop\n      pop\n      pop\n      pop\n      pop\n      pop\n      jump\t// out\n        /* \"#utility.yul\":8308:8530   */\n    tag_49:\n        /* \"#utility.yul\":8401:8405   */\n      0x00\n        /* \"#utility.yul\":8439:8441   */\n      0x20\n        /* \"#utility.yul\":8428:8437   */\n      dup3\n        /* \"#utility.yul\":8424:8442   */\n      add\n        /* \"#utility.yul\":8416:8442   */\n      swap1\n      pop\n        /* \"#utility.yul\":8452:8523   */\n      tag_239\n        /* \"#utility.yul\":8520:8521   */\n      0x00\n        /* \"#utility.yul\":8509:8518   */\n      dup4\n        /* \"#utility.yul\":8505:8522   */\n      add\n        /* \"#utility.yul\":8496:8502   */\n      dup5\n        /* \"#utility.yul\":8452:8523   */\n      tag_136\n      jump\t// in\n    tag_239:\n        /* \"#utility.yul\":8308:8530   */\n      swap3\n      swap2\n      pop\n      pop\n      jump\t// out\n        /* \"#utility.yul\":8536:9010   */\n    tag_63:\n        /* \"#utility.yul\":8604:8610   */\n      0x00\n        /* \"#utility.yul\":8612:8618   */\n      dup1\n        /* \"#utility.yul\":8661:8663   */\n      0x40\n        /* \"#utility.yul\":8649:8658   */\n      dup4\n        /* \"#utility.yul\":8640:8647   */\n      dup6\n        /* \"#utility.yul\":8636:8659   */\n      sub\n        /* \"#utility.yul\":8632:8664   */\n      slt\n        /* \"#utility.yul\":8629:8748   */\n      iszero\n      tag_241\n      jumpi\n        /* \"#utility.yul\":8667:8746   */\n      tag_242\n      tag_114\n      jump\t// in\n    tag_242:\n        /* \"#utility.yul\":8629:8748   */\n    tag_241:\n        /* \"#utility.yul\":8787:8788   */\n      0x00\n        /* \"#utility.yul\":8812:8865   */\n      tag_243\n        /* \"#utility.yul\":8857:8864   */\n      dup6\n        /* \"#utility.yul\":8848:8854   */\n      dup3\n        /* \"#utility.yul\":8837:8846   */\n      dup7\n        /* \"#utility.yul\":8833:8855   */\n      add\n        /* \"#utility.yul\":8812:8865   */\n      tag_119\n      jump\t// in\n    tag_243:\n        /* \"#utility.yul\":8802:8865   */\n      swap3\n      pop\n        /* \"#utility.yul\":8758:8875   */\n      pop\n        /* \"#utility.yul\":8914:8916   */\n      0x20\n        /* \"#utility.yul\":8940:8993   */\n      tag_244\n        /* \"#utility.yul\":8985:8992   */\n      dup6\n        /* \"#utility.yul\":8976:8982   */\n      dup3\n        /* \"#utility.yul\":8965:8974   */\n      dup7\n        /* \"#utility.yul\":8961:8983   */\n      add\n        /* \"#utility.yul\":8940:8993   */\n      tag_121\n      jump\t// in\n    tag_244:\n        /* \"#utility.yul\":8930:8993   */\n      swap2\n      pop\n        /* \"#utility.yul\":8885:9003   */\n      pop\n        /* \"#utility.yul\":8536:9010   */\n      swap3\n      pop\n      swap3\n      swap1\n      pop\n      jump\t// out\n        /* \"#utility.yul\":9016:9095   */\n    tag_137:\n        /* \"#utility.yul\":9055:9062   */\n      0x00\n        /* \"#utility.yul\":9084:9089   */\n      dup2\n        /* \"#utility.yul\":9073:9089   */\n      swap1\n      pop\n        /* \"#utility.yul\":9016:9095   */\n      swap2\n      swap1\n      pop\n      jump\t// out\n        /* \"#utility.yul\":9101:9258   */\n    tag_138:\n        /* \"#utility.yul\":9206:9251   */\n      tag_247\n        /* \"#utility.yul\":9226:9250   */\n      tag_248\n        /* \"#utility.yul\":9244:9249   */\n      dup3\n        /* \"#utility.yul\":9226:9250   */\n      tag_111\n      jump\t// in\n    tag_248:\n        /* \"#utility.yul\":9206:9251   */\n      tag_137\n      jump\t// in\n    tag_247:\n        /* \"#utility.yul\":9201:9204   */\n      dup3\n        /* \"#utility.yul\":9194:9252   */\n      mstore\n        /* \"#utility.yul\":9101:9258   */\n      pop\n      pop\n      jump\t// out\n        /* \"#utility.yul\":9264:9412   */\n    tag_139:\n        /* \"#utility.yul\":9366:9377   */\n      0x00\n        /* \"#utility.yul\":9403:9406   */\n      dup2\n        /* \"#utility.yul\":9388:9406   */\n      swap1\n      pop\n        /* \"#utility.yul\":9264:9412   */\n      swap3\n      swap2\n      pop\n      pop\n      jump\t// out\n        /* \"#utility.yul\":9418:9795   */\n    tag_140:\n        /* \"#utility.yul\":9524:9527   */\n      0x00\n        /* \"#utility.yul\":9552:9591   */\n      tag_251\n        /* \"#utility.yul\":9585:9590   */\n      dup3\n        /* \"#utility.yul\":9552:9591   */\n      tag_132\n      jump\t// in\n    tag_251:\n        /* \"#utility.yul\":9607:9696   */\n      tag_252\n        /* \"#utility.yul\":9689:9695   */\n      dup2\n        /* \"#utility.yul\":9684:9687   */\n      dup6\n        /* \"#utility.yul\":9607:9696   */\n      tag_139\n      jump\t// in\n    tag_252:\n        /* \"#utility.yul\":9600:9696   */\n      swap4\n      pop\n        /* \"#utility.yul\":9705:9757   */\n      tag_253\n        /* \"#utility.yul\":9750:9756   */\n      dup2\n        /* \"#utility.yul\":9745:9748   */\n      dup6\n        /* \"#utility.yul\":9738:9742   */\n      0x20\n        /* \"#utility.yul\":9731:9736   */\n      dup7\n        /* \"#utility.yul\":9727:9743   */\n      add\n        /* \"#utility.yul\":9705:9757   */\n      tag_134\n      jump\t// in\n    tag_253:\n        /* \"#utility.yul\":9782:9788   */\n      dup1\n        /* \"#utility.yul\":9777:9780   */\n      dup5\n        /* \"#utility.yul\":9773:9789   */\n      add\n        /* \"#utility.yul\":9766:9789   */\n      swap2\n      pop\n        /* \"#utility.yul\":9528:9795   */\n      pop\n        /* \"#utility.yul\":9418:9795   */\n      swap3\n      swap2\n      pop\n      pop\n      jump\t// out\n        /* \"#utility.yul\":9801:10217   */\n    tag_75:\n        /* \"#utility.yul\":9961:9964   */\n      0x00\n        /* \"#utility.yul\":9976:10051   */\n      tag_255\n        /* \"#utility.yul\":10047:10050   */\n      dup3\n        /* \"#utility.yul\":10038:10044   */\n      dup6\n        /* \"#utility.yul\":9976:10051   */\n      tag_138\n      jump\t// in\n    tag_255:\n        /* \"#utility.yul\":10076:10078   */\n      0x20\n        /* \"#utility.yul\":10071:10074   */\n      dup3\n        /* \"#utility.yul\":10067:10079   */\n      add\n        /* \"#utility.yul\":10060:10079   */\n      swap2\n      pop\n        /* \"#utility.yul\":10096:10191   */\n      tag_256\n        /* \"#utility.yul\":10187:10190   */\n      dup3\n        /* \"#utility.yul\":10178:10184   */\n      dup5\n        /* \"#utility.yul\":10096:10191   */\n      tag_140\n      jump\t// in\n    tag_256:\n        /* \"#utility.yul\":10089:10191   */\n      swap2\n      pop\n        /* \"#utility.yul\":10208:10211   */\n      dup2\n        /* \"#utility.yul\":10201:10211   */\n      swap1\n      pop\n        /* \"#utility.yul\":9801:10217   */\n      swap4\n      swap3\n      pop\n      pop\n      pop\n      jump\t// out\n        /* \"#utility.yul\":10223:10403   */\n    tag_141:\n        /* \"#utility.yul\":10271:10348   */\n      0x4e487b7100000000000000000000000000000000000000000000000000000000\n        /* \"#utility.yul\":10268:10269   */\n      0x00\n        /* \"#utility.yul\":10261:10349   */\n      mstore\n        /* \"#utility.yul\":10368:10372   */\n      0x11\n        /* \"#utility.yul\":10365:10366   */\n      0x04\n        /* \"#utility.yul\":10358:10373   */\n      mstore\n        /* \"#utility.yul\":10392:10396   */\n      0x24\n        /* \"#utility.yul\":10389:10390   */\n      0x00\n        /* \"#utility.yul\":10382:10397   */\n      revert\n        /* \"#utility.yul\":10409:10642   */\n    tag_80:\n        /* \"#utility.yul\":10448:10451   */\n      0x00\n        /* \"#utility.yul\":10471:10495   */\n      tag_259\n        /* \"#utility.yul\":10489:10494   */\n      dup3\n        /* \"#utility.yul\":10471:10495   */\n      tag_111\n      jump\t// in\n    tag_259:\n        /* \"#utility.yul\":10462:10495   */\n      swap2\n      pop\n        /* \"#utility.yul\":10517:10583   */\n      0xffffffffffffffffffffffffffffffffffffffffffffffffffffffffffffffff\n        /* \"#utility.yul\":10510:10515   */\n      dup3\n        /* \"#utility.yul\":10507:10584   */\n      eq\n        /* \"#utility.yul\":10504:10607   */\n      iszero\n      tag_260\n      jumpi\n        /* \"#utility.yul\":10587:10605   */\n      tag_261\n      tag_141\n      jump\t// in\n    tag_261:\n        /* \"#utility.yul\":10504:10607   */\n    tag_260:\n        /* \"#utility.yul\":10634:10635   */\n      0x01\n        /* \"#utility.yul\":10627:10632   */\n      dup3\n        /* \"#utility.yul\":10623:10636   */\n      add\n        /* \"#utility.yul\":10616:10636   */\n      swap1\n      pop\n        /* \"#utility.yul\":10409:10642   */\n      swap2\n      swap1\n      pop\n      jump\t// out\n        /* \"#utility.yul\":10648:10828   */\n    tag_142:\n        /* \"#utility.yul\":10696:10773   */\n      0x4e487b7100000000000000000000000000000000000000000000000000000000\n        /* \"#utility.yul\":10693:10694   */\n      0x00\n        /* \"#utility.yul\":10686:10774   */\n      mstore\n        /* \"#utility.yul\":10793:10797   */\n      0x22\n        /* \"#utility.yul\":10790:10791   */\n      0x04\n        /* \"#utility.yul\":10783:10798   */\n      mstore\n        /* \"#utility.yul\":10817:10821   */\n      0x24\n        /* \"#utility.yul\":10814:10815   */\n      0x00\n        /* \"#utility.yul\":10807:10822   */\n      revert\n        /* \"#utility.yul\":10834:11154   */\n    tag_82:\n        /* \"#utility.yul\":10878:10884   */\n      0x00\n        /* \"#utility.yul\":10915:10916   */\n      0x02\n        /* \"#utility.yul\":10909:10913   */\n      dup3\n        /* \"#utility.yul\":10905:10917   */\n      div\n        /* \"#utility.yul\":10895:10917   */\n      swap1\n      pop\n        /* \"#utility.yul\":10962:10963   */\n      0x01\n        /* \"#utility.yul\":10956:10960   */\n      dup3\n        /* \"#utility.yul\":10952:10964   */\n      and\n        /* \"#utility.yul\":10983:11001   */\n      dup1\n        /* \"#utility.yul\":10973:11054   */\n      tag_264\n      jumpi\n        /* \"#utility.yul\":11039:11043   */\n      0x7f\n        /* \"#utility.yul\":11031:11037   */\n      dup3\n        /* \"#utility.yul\":11027:11044   */\n      and\n        /* \"#utility.yul\":11017:11044   */\n      swap2\n      pop\n        /* \"#utility.yul\":10973:11054   */\n    tag_264:\n        /* \"#utility.yul\":11101:11103   */\n      0x20\n        /* \"#utility.yul\":11093:11099   */\n      dup3\n        /* \"#utility.yul\":11090:11104   */\n      lt\n        /* \"#utility.yul\":11070:11088   */\n      dup2\n        /* \"#utility.yul\":11067:11105   */\n      eq\n        /* \"#utility.yul\":11064:11148   */\n      iszero\n      tag_265\n      jumpi\n        /* \"#utility.yul\":11120:11138   */\n      tag_266\n      tag_142\n      jump\t// in\n    tag_266:\n        /* \"#utility.yul\":11064:11148   */\n    tag_265:\n        /* \"#utility.yul\":10885:11154   */\n      pop\n        /* \"#utility.yul\":10834:11154   */\n      swap2\n      swap1\n      pop\n      jump\t// out\n\n    auxdata: 0xa26469706673582212203830deda141e428c4d14725ef350974f47f6d603df000394f0701d79df88c9db64736f6c63430008090033\n}\n","bytecode":{"linkReferences":{},"object":"608060405234801561001057600080fd5b50326000806101000a81548173ffffffffffffffffffffffffffffffffffffffff021916908373ffffffffffffffffffffffffffffffffffffffff160217905550600160048190555061120a806100686000396000f3fe6080604052600436106100915760003560e01c806350d15fbe1161005957806350d15fbe1461016c5780636352211e146101ad57806370a08231146101ea578063a0f45b6914610227578063a9059cbb1461026457610091565b806301051c7214610096578063022914a7146100c157806312d89dee146100fe57806323b872dd1461011a57806331b6475c14610143575b600080fd5b3480156100a257600080fd5b506100ab61028d565b6040516100b89190610bbc565b60405180910390f35b3480156100cd57600080fd5b506100e860048036038101906100e39190610c49565b610293565b6040516100f59190610bbc565b60405180910390f35b61011860048036038101906101139190610ca2565b6102ab565b005b34801561012657600080fd5b50610141600480360381019061013c9190610ccf565b61033e565b005b34801561014f57600080fd5b5061016a60048036038101906101659190610e68565b6104be565b005b34801561017857600080fd5b50610193600480360381019061018e9190610ca2565b610704565b6040516101a4959493929190610fba565b60405180910390f35b3480156101b957600080fd5b506101d460048036038101906101cf9190610ca2565b61086a565b6040516101e1919061101b565b60405180910390f35b3480156101f657600080fd5b50610211600480360381019061020c9190610c49565b610906565b60405161021e9190610bbc565b60405180910390f35b34801561023357600080fd5b5061024e60048036038101906102499190610ca2565b610986565b60405161025b919061101b565b60405180910390f35b34801561027057600080fd5b5061028b60048036038101906102869190611036565b6109b9565b005b60045481565b60036020528060005260406000206000915090505481565b60026000828152602001908152602001600020600401543410156102ce57600080fd5b600034905060008054906101000a900473ffffffffffffffffffffffffffffffffffffffff1673ffffffffffffffffffffffffffffffffffffffff166108fc829081150290604051600060405180830381858888f19350505050158015610339573d6000803e3d6000fd5b505050565b80600360008473ffffffffffffffffffffffffffffffffffffffff1673ffffffffffffffffffffffffffffffffffffffff168152602001908152602001600020541461038957600080fd5b80600360008573ffffffffffffffffffffffffffffffffffffffff1673ffffffffffffffffffffffffffffffffffffffff168152602001908152602001600020819055506000600360008473ffffffffffffffffffffffffffffffffffffffff1673ffffffffffffffffffffffffffffffffffffffff16815260200190815260200160002081905550826001600083815260200190815260200160002060006101000a81548173ffffffffffffffffffffffffffffffffffffffff021916908373ffffffffffffffffffffffffffffffffffffffff160217905550826002600083815260200190815260200160002060030160006101000a81548173ffffffffffffffffffffffffffffffffffffffff021916908373ffffffffffffffffffffffffffffffffffffffff160217905550505050565b60008054906101000a900473ffffffffffffffffffffffffffffffffffffffff1673ffffffffffffffffffffffffffffffffffffffff163373ffffffffffffffffffffffffffffffffffffffff161461051657600080fd5b60006004548560405160200161052d9291906110d3565b604051602081830303815290604052805190602001209050806005600060045481526020019081526020016000208190555060008054906101000a900473ffffffffffffffffffffffffffffffffffffffff1660016000600454815260200190815260200160002060006101000a81548173ffffffffffffffffffffffffffffffffffffffff021916908373ffffffffffffffffffffffffffffffffffffffff16021790555060006040518060a00160405280600454815260200186815260200185815260200160008054906101000a900473ffffffffffffffffffffffffffffffffffffffff1673ffffffffffffffffffffffffffffffffffffffff16815260200184815250905080600260006004548152602001908152602001600020600082015181600001556020820151816001019080519060200190610672929190610b00565b50604082015181600201908051906020019061068f929190610b00565b5060608201518160030160006101000a81548173ffffffffffffffffffffffffffffffffffffffff021916908373ffffffffffffffffffffffffffffffffffffffff16021790555060808201518160040155905050600460008154809291906106f79061112a565b9190505550505050505050565b600260205280600052604060002060009150905080600001549080600101805461072d906111a2565b80601f0160208091040260200160405190810160405280929190818152602001828054610759906111a2565b80156107a65780601f1061077b576101008083540402835291602001916107a6565b820191906000526020600020905b81548152906001019060200180831161078957829003601f168201915b5050505050908060020180546107bb906111a2565b80601f01602080910402602001604051908101604052809291908181526020018280546107e7906111a2565b80156108345780601f1061080957610100808354040283529160200191610834565b820191906000526020600020905b81548152906001019060200180831161081757829003601f168201915b5050505050908060030160009054906101000a900473ffffffffffffffffffffffffffffffffffffffff16908060040154905085565b60008060009054906101000a900473ffffffffffffffffffffffffffffffffffffffff1673ffffffffffffffffffffffffffffffffffffffff163373ffffffffffffffffffffffffffffffffffffffff16146108c557600080fd5b60006001600084815260200190815260200160002060009054906101000a900473ffffffffffffffffffffffffffffffffffffffff16905080915050919050565b60008060009054906101000a900473ffffffffffffffffffffffffffffffffffffffff1673ffffffffffffffffffffffffffffffffffffffff163373ffffffffffffffffffffffffffffffffffffffff161461096157600080fd5b60008273ffffffffffffffffffffffffffffffffffffffff1631905080915050919050565b60016020528060005260406000206000915054906101000a900473ffffffffffffffffffffffffffffffffffffffff1681565b60008054906101000a900473ffffffffffffffffffffffffffffffffffffffff1673ffffffffffffffffffffffffffffffffffffffff163373ffffffffffffffffffffffffffffffffffffffff1614610a1157600080fd5b816001600083815260200190815260200160002060006101000a81548173ffffffffffffffffffffffffffffffffffffffff021916908373ffffffffffffffffffffffffffffffffffffffff16021790555080600360008473ffffffffffffffffffffffffffffffffffffffff1673ffffffffffffffffffffffffffffffffffffffff16815260200190815260200160002081905550816002600083815260200190815260200160002060030160006101000a81548173ffffffffffffffffffffffffffffffffffffffff021916908373ffffffffffffffffffffffffffffffffffffffff1602179055505050565b828054610b0c906111a2565b90600052602060002090601f016020900481019282610b2e5760008555610b75565b82601f10610b4757805160ff1916838001178555610b75565b82800160010185558215610b75579182015b82811115610b74578251825591602001919060010190610b59565b5b509050610b829190610b86565b5090565b5b80821115610b9f576000816000905550600101610b87565b5090565b6000819050919050565b610bb681610ba3565b82525050565b6000602082019050610bd16000830184610bad565b92915050565b6000604051905090565b600080fd5b600080fd5b600073ffffffffffffffffffffffffffffffffffffffff82169050919050565b6000610c1682610beb565b9050919050565b610c2681610c0b565b8114610c3157600080fd5b50565b600081359050610c4381610c1d565b92915050565b600060208284031215610c5f57610c5e610be1565b5b6000610c6d84828501610c34565b91505092915050565b610c7f81610ba3565b8114610c8a57600080fd5b50565b600081359050610c9c81610c76565b92915050565b600060208284031215610cb857610cb7610be1565b5b6000610cc684828501610c8d565b91505092915050565b600080600060608486031215610ce857610ce7610be1565b5b6000610cf686828701610c34565b9350506020610d0786828701610c34565b9250506040610d1886828701610c8d565b9150509250925092565b600080fd5b600080fd5b6000601f19601f8301169050919050565b7f4e487b7100000000000000000000000000000000000000000000000000000000600052604160045260246000fd5b610d7582610d2c565b810181811067ffffffffffffffff82111715610d9457610d93610d3d565b5b80604052505050565b6000610da7610bd7565b9050610db38282610d6c565b919050565b600067ffffffffffffffff821115610dd357610dd2610d3d565b5b610ddc82610d2c565b9050602081019050919050565b82818337600083830152505050565b6000610e0b610e0684610db8565b610d9d565b905082815260208101848484011115610e2757610e26610d27565b5b610e32848285610de9565b509392505050565b600082601f830112610e4f57610e4e610d22565b5b8135610e5f848260208601610df8565b91505092915050565b60008060008060808587031215610e8257610e81610be1565b5b600085013567ffffffffffffffff811115610ea057610e9f610be6565b5b610eac87828801610e3a565b945050602085013567ffffffffffffffff811115610ecd57610ecc610be6565b5b610ed987828801610e3a565b935050604085013567ffffffffffffffff811115610efa57610ef9610be6565b5b610f0687828801610e3a565b9250506060610f1787828801610c8d565b91505092959194509250565b600081519050919050565b600082825260208201905092915050565b60005b83811015610f5d578082015181840152602081019050610f42565b83811115610f6c576000848401525b50505050565b6000610f7d82610f23565b610f878185610f2e565b9350610f97818560208601610f3f565b610fa081610d2c565b840191505092915050565b610fb481610c0b565b82525050565b600060a082019050610fcf6000830188610bad565b8181036020830152610fe18187610f72565b90508181036040830152610ff58186610f72565b90506110046060830185610fab565b6110116080830184610bad565b9695505050505050565b60006020820190506110306000830184610fab565b92915050565b6000806040838503121561104d5761104c610be1565b5b600061105b85828601610c34565b925050602061106c85828601610c8d565b9150509250929050565b6000819050919050565b61109161108c82610ba3565b611076565b82525050565b600081905092915050565b60006110ad82610f23565b6110b78185611097565b93506110c7818560208601610f3f565b80840191505092915050565b60006110df8285611080565b6020820191506110ef82846110a2565b91508190509392505050565b7f4e487b7100000000000000000000000000000000000000000000000000000000600052601160045260246000fd5b600061113582610ba3565b91507fffffffffffffffffffffffffffffffffffffffffffffffffffffffffffffffff821415611168576111676110fb565b5b600182019050919050565b7f4e487b7100000000000000000000000000000000000000000000000000000000600052602260045260246000fd5b600060028204905060018216806111ba57607f821691505b602082108114156111ce576111cd611173565b5b5091905056fea26469706673582212203830deda141e428c4d14725ef350974f47f6d603df000394f0701d79df88c9db64736f6c63430008090033","opcodes":"PUSH1 0x80 PUSH1 0x40 MSTORE CALLVALUE DUP1 ISZERO PUSH2 0x10 JUMPI PUSH1 0x0 DUP1 REVERT JUMPDEST POP ORIGIN PUSH1 0x0 DUP1 PUSH2 0x100 EXP DUP2 SLOAD DUP2 PUSH20 0xFFFFFFFFFFFFFFFFFFFFFFFFFFFFFFFFFFFFFFFF MUL NOT AND SWAP1 DUP4 PUSH20 0xFFFFFFFFFFFFFFFFFFFFFFFFFFFFFFFFFFFFFFFF AND MUL OR SWAP1 SSTORE POP PUSH1 0x1 PUSH1 0x4 DUP2 SWAP1 SSTORE POP PUSH2 0x120A DUP1 PUSH2 0x68 PUSH1 0x0 CODECOPY PUSH1 0x0 RETURN INVALID PUSH1 0x80 PUSH1 0x40 MSTORE PUSH1 0x4 CALLDATASIZE LT PUSH2 0x91 JUMPI PUSH1 0x0 CALLDATALOAD PUSH1 0xE0 SHR DUP1 PUSH4 0x50D15FBE GT PUSH2 0x59 JUMPI DUP1 PUSH4 0x50D15FBE EQ PUSH2 0x16C JUMPI DUP1 PUSH4 0x6352211E EQ PUSH2 0x1AD JUMPI DUP1 PUSH4 0x70A08231 EQ PUSH2 0x1EA JUMPI DUP1 PUSH4 0xA0F45B69 EQ PUSH2 0x227 JUMPI DUP1 PUSH4 0xA9059CBB EQ PUSH2 0x264 JUMPI PUSH2 0x91 JUMP JUMPDEST DUP1 PUSH4 0x1051C72 EQ PUSH2 0x96 JUMPI DUP1 PUSH4 0x22914A7 EQ PUSH2 0xC1 JUMPI DUP1 PUSH4 0x12D89DEE EQ PUSH2 0xFE JUMPI DUP1 PUSH4 0x23B872DD EQ PUSH2 0x11A JUMPI DUP1 PUSH4 0x31B6475C EQ PUSH2 0x143 JUMPI JUMPDEST PUSH1 0x0 DUP1 REVERT JUMPDEST CALLVALUE DUP1 ISZERO PUSH2 0xA2 JUMPI PUSH1 0x0 DUP1 REVERT JUMPDEST POP PUSH2 0xAB PUSH2 0x28D JUMP JUMPDEST PUSH1 0x40 MLOAD PUSH2 0xB8 SWAP2 SWAP1 PUSH2 0xBBC JUMP JUMPDEST PUSH1 0x40 MLOAD DUP1 SWAP2 SUB SWAP1 RETURN JUMPDEST CALLVALUE DUP1 ISZERO PUSH2 0xCD JUMPI PUSH1 0x0 DUP1 REVERT JUMPDEST POP PUSH2 0xE8 PUSH1 0x4 DUP1 CALLDATASIZE SUB DUP2 ADD SWAP1 PUSH2 0xE3 SWAP2 SWAP1 PUSH2 0xC49 JUMP JUMPDEST PUSH2 0x293 JUMP JUMPDEST PUSH1 0x40 MLOAD PUSH2 0xF5 SWAP2 SWAP1 PUSH2 0xBBC JUMP JUMPDEST PUSH1 0x40 MLOAD DUP1 SWAP2 SUB SWAP1 RETURN JUMPDEST PUSH2 0x118 PUSH1 0x4 DUP1 CALLDATASIZE SUB DUP2 ADD SWAP1 PUSH2 0x113 SWAP2 SWAP1 PUSH2 0xCA2 JUMP JUMPDEST PUSH2 0x2AB JUMP JUMPDEST STOP JUMPDEST CALLVALUE DUP1 ISZERO PUSH2 0x126 JUMPI PUSH1 0x0 DUP1 REVERT JUMPDEST POP PUSH2 0x141 PUSH1 0x4 DUP1 CALLDATASIZE SUB DUP2 ADD SWAP1 PUSH2 0x13C SWAP2 SWAP1 PUSH2 0xCCF JUMP JUMPDEST PUSH2 0x33E JUMP JUMPDEST STOP JUMPDEST CALLVALUE DUP1 ISZERO PUSH2 0x14F JUMPI PUSH1 0x0 DUP1 REVERT JUMPDEST POP PUSH2 0x16A PUSH1 0x4 DUP1 CALLDATASIZE SUB DUP2 ADD SWAP1 PUSH2 0x165 SWAP2 SWAP1 PUSH2 0xE68 JUMP JUMPDEST PUSH2 0x4BE JUMP JUMPDEST STOP JUMPDEST CALLVALUE DUP1 ISZERO PUSH2 0x178 JUMPI PUSH1 0x0 DUP1 REVERT JUMPDEST POP PUSH2 0x193 PUSH1 0x4 DUP1 CALLDATASIZE SUB DUP2 ADD SWAP1 PUSH2 0x18E SWAP2 SWAP1 PUSH2 0xCA2 JUMP JUMPDEST PUSH2 0x704 JUMP JUMPDEST PUSH1 0x40 MLOAD PUSH2 0x1A4 SWAP6 SWAP5 SWAP4 SWAP3 SWAP2 SWAP1 PUSH2 0xFBA JUMP JUMPDEST PUSH1 0x40 MLOAD DUP1 SWAP2 SUB SWAP1 RETURN JUMPDEST CALLVALUE DUP1 ISZERO PUSH2 0x1B9 JUMPI PUSH1 0x0 DUP1 REVERT JUMPDEST POP PUSH2 0x1D4 PUSH1 0x4 DUP1 CALLDATASIZE SUB DUP2 ADD SWAP1 PUSH2 0x1CF SWAP2 SWAP1 PUSH2 0xCA2 JUMP JUMPDEST PUSH2 0x86A JUMP JUMPDEST PUSH1 0x40 MLOAD PUSH2 0x1E1 SWAP2 SWAP1 PUSH2 0x101B JUMP JUMPDEST PUSH1 0x40 MLOAD DUP1 SWAP2 SUB SWAP1 RETURN JUMPDEST CALLVALUE DUP1 ISZERO PUSH2 0x1F6 JUMPI PUSH1 0x0 DUP1 REVERT JUMPDEST POP PUSH2 0x211 PUSH1 0x4 DUP1 CALLDATASIZE SUB DUP2 ADD SWAP1 PUSH2 0x20C SWAP2 SWAP1 PUSH2 0xC49 JUMP JUMPDEST PUSH2 0x906 JUMP JUMPDEST PUSH1 0x40 MLOAD PUSH2 0x21E SWAP2 SWAP1 PUSH2 0xBBC JUMP JUMPDEST PUSH1 0x40 MLOAD DUP1 SWAP2 SUB SWAP1 RETURN JUMPDEST CALLVALUE DUP1 ISZERO PUSH2 0x233 JUMPI PUSH1 0x0 DUP1 REVERT JUMPDEST POP PUSH2 0x24E PUSH1 0x4 DUP1 CALLDATASIZE SUB DUP2 ADD SWAP1 PUSH2 0x249 SWAP2 SWAP1 PUSH2 0xCA2 JUMP JUMPDEST PUSH2 0x986 JUMP JUMPDEST PUSH1 0x40 MLOAD PUSH2 0x25B SWAP2 SWAP1 PUSH2 0x101B JUMP JUMPDEST PUSH1 0x40 MLOAD DUP1 SWAP2 SUB SWAP1 RETURN JUMPDEST CALLVALUE DUP1 ISZERO PUSH2 0x270 JUMPI PUSH1 0x0 DUP1 REVERT JUMPDEST POP PUSH2 0x28B PUSH1 0x4 DUP1 CALLDATASIZE SUB DUP2 ADD SWAP1 PUSH2 0x286 SWAP2 SWAP1 PUSH2 0x1036 JUMP JUMPDEST PUSH2 0x9B9 JUMP JUMPDEST STOP JUMPDEST PUSH1 0x4 SLOAD DUP2 JUMP JUMPDEST PUSH1 0x3 PUSH1 0x20 MSTORE DUP1 PUSH1 0x0 MSTORE PUSH1 0x40 PUSH1 0x0 KECCAK256 PUSH1 0x0 SWAP2 POP SWAP1 POP SLOAD DUP2 JUMP JUMPDEST PUSH1 0x2 PUSH1 0x0 DUP3 DUP2 MSTORE PUSH1 0x20 ADD SWAP1 DUP2 MSTORE PUSH1 0x20 ADD PUSH1 0x0 KECCAK256 PUSH1 0x4 ADD SLOAD CALLVALUE LT ISZERO PUSH2 0x2CE JUMPI PUSH1 0x0 DUP1 REVERT JUMPDEST PUSH1 0x0 CALLVALUE SWAP1 POP PUSH1 0x0 DUP1 SLOAD SWAP1 PUSH2 0x100 EXP SWAP1 DIV PUSH20 0xFFFFFFFFFFFFFFFFFFFFFFFFFFFFFFFFFFFFFFFF AND PUSH20 0xFFFFFFFFFFFFFFFFFFFFFFFFFFFFFFFFFFFFFFFF AND PUSH2 0x8FC DUP3 SWAP1 DUP2 ISZERO MUL SWAP1 PUSH1 0x40 MLOAD PUSH1 0x0 PUSH1 0x40 MLOAD DUP1 DUP4 SUB DUP2 DUP6 DUP9 DUP9 CALL SWAP4 POP POP POP POP ISZERO DUP1 ISZERO PUSH2 0x339 JUMPI RETURNDATASIZE PUSH1 0x0 DUP1 RETURNDATACOPY RETURNDATASIZE PUSH1 0x0 REVERT JUMPDEST POP POP POP JUMP JUMPDEST DUP1 PUSH1 0x3 PUSH1 0x0 DUP5 PUSH20 0xFFFFFFFFFFFFFFFFFFFFFFFFFFFFFFFFFFFFFFFF AND PUSH20 0xFFFFFFFFFFFFFFFFFFFFFFFFFFFFFFFFFFFFFFFF AND DUP2 MSTORE PUSH1 0x20 ADD SWAP1 DUP2 MSTORE PUSH1 0x20 ADD PUSH1 0x0 KECCAK256 SLOAD EQ PUSH2 0x389 JUMPI PUSH1 0x0 DUP1 REVERT JUMPDEST DUP1 PUSH1 0x3 PUSH1 0x0 DUP6 PUSH20 0xFFFFFFFFFFFFFFFFFFFFFFFFFFFFFFFFFFFFFFFF AND PUSH20 0xFFFFFFFFFFFFFFFFFFFFFFFFFFFFFFFFFFFFFFFF AND DUP2 MSTORE PUSH1 0x20 ADD SWAP1 DUP2 MSTORE PUSH1 0x20 ADD PUSH1 0x0 KECCAK256 DUP2 SWAP1 SSTORE POP PUSH1 0x0 PUSH1 0x3 PUSH1 0x0 DUP5 PUSH20 0xFFFFFFFFFFFFFFFFFFFFFFFFFFFFFFFFFFFFFFFF AND PUSH20 0xFFFFFFFFFFFFFFFFFFFFFFFFFFFFFFFFFFFFFFFF AND DUP2 MSTORE PUSH1 0x20 ADD SWAP1 DUP2 MSTORE PUSH1 0x20 ADD PUSH1 0x0 KECCAK256 DUP2 SWAP1 SSTORE POP DUP3 PUSH1 0x1 PUSH1 0x0 DUP4 DUP2 MSTORE PUSH1 0x20 ADD SWAP1 DUP2 MSTORE PUSH1 0x20 ADD PUSH1 0x0 KECCAK256 PUSH1 0x0 PUSH2 0x100 EXP DUP2 SLOAD DUP2 PUSH20 0xFFFFFFFFFFFFFFFFFFFFFFFFFFFFFFFFFFFFFFFF MUL NOT AND SWAP1 DUP4 PUSH20 0xFFFFFFFFFFFFFFFFFFFFFFFFFFFFFFFFFFFFFFFF AND MUL OR SWAP1 SSTORE POP DUP3 PUSH1 0x2 PUSH1 0x0 DUP4 DUP2 MSTORE PUSH1 0x20 ADD SWAP1 DUP2 MSTORE PUSH1 0x20 ADD PUSH1 0x0 KECCAK256 PUSH1 0x3 ADD PUSH1 0x0 PUSH2 0x100 EXP DUP2 SLOAD DUP2 PUSH20 0xFFFFFFFFFFFFFFFFFFFFFFFFFFFFFFFFFFFFFFFF MUL NOT AND SWAP1 DUP4 PUSH20 0xFFFFFFFFFFFFFFFFFFFFFFFFFFFFFFFFFFFFFFFF AND MUL OR SWAP1 SSTORE POP POP POP POP JUMP JUMPDEST PUSH1 0x0 DUP1 SLOAD SWAP1 PUSH2 0x100 EXP SWAP1 DIV PUSH20 0xFFFFFFFFFFFFFFFFFFFFFFFFFFFFFFFFFFFFFFFF AND PUSH20 0xFFFFFFFFFFFFFFFFFFFFFFFFFFFFFFFFFFFFFFFF AND CALLER PUSH20 0xFFFFFFFFFFFFFFFFFFFFFFFFFFFFFFFFFFFFFFFF AND EQ PUSH2 0x516 JUMPI PUSH1 0x0 DUP1 REVERT JUMPDEST PUSH1 0x0 PUSH1 0x4 SLOAD DUP6 PUSH1 0x40 MLOAD PUSH1 0x20 ADD PUSH2 0x52D SWAP3 SWAP2 SWAP1 PUSH2 0x10D3 JUMP JUMPDEST PUSH1 0x40 MLOAD PUSH1 0x20 DUP2 DUP4 SUB SUB DUP2 MSTORE SWAP1 PUSH1 0x40 MSTORE DUP1 MLOAD SWAP1 PUSH1 0x20 ADD KECCAK256 SWAP1 POP DUP1 PUSH1 0x5 PUSH1 0x0 PUSH1 0x4 SLOAD DUP2 MSTORE PUSH1 0x20 ADD SWAP1 DUP2 MSTORE PUSH1 0x20 ADD PUSH1 0x0 KECCAK256 DUP2 SWAP1 SSTORE POP PUSH1 0x0 DUP1 SLOAD SWAP1 PUSH2 0x100 EXP SWAP1 DIV PUSH20 0xFFFFFFFFFFFFFFFFFFFFFFFFFFFFFFFFFFFFFFFF AND PUSH1 0x1 PUSH1 0x0 PUSH1 0x4 SLOAD DUP2 MSTORE PUSH1 0x20 ADD SWAP1 DUP2 MSTORE PUSH1 0x20 ADD PUSH1 0x0 KECCAK256 PUSH1 0x0 PUSH2 0x100 EXP DUP2 SLOAD DUP2 PUSH20 0xFFFFFFFFFFFFFFFFFFFFFFFFFFFFFFFFFFFFFFFF MUL NOT AND SWAP1 DUP4 PUSH20 0xFFFFFFFFFFFFFFFFFFFFFFFFFFFFFFFFFFFFFFFF AND MUL OR SWAP1 SSTORE POP PUSH1 0x0 PUSH1 0x40 MLOAD DUP1 PUSH1 0xA0 ADD PUSH1 0x40 MSTORE DUP1 PUSH1 0x4 SLOAD DUP2 MSTORE PUSH1 0x20 ADD DUP7 DUP2 MSTORE PUSH1 0x20 ADD DUP6 DUP2 MSTORE PUSH1 0x20 ADD PUSH1 0x0 DUP1 SLOAD SWAP1 PUSH2 0x100 EXP SWAP1 DIV PUSH20 0xFFFFFFFFFFFFFFFFFFFFFFFFFFFFFFFFFFFFFFFF AND PUSH20 0xFFFFFFFFFFFFFFFFFFFFFFFFFFFFFFFFFFFFFFFF AND DUP2 MSTORE PUSH1 0x20 ADD DUP5 DUP2 MSTORE POP SWAP1 POP DUP1 PUSH1 0x2 PUSH1 0x0 PUSH1 0x4 SLOAD DUP2 MSTORE PUSH1 0x20 ADD SWAP1 DUP2 MSTORE PUSH1 0x20 ADD PUSH1 0x0 KECCAK256 PUSH1 0x0 DUP3 ADD MLOAD DUP2 PUSH1 0x0 ADD SSTORE PUSH1 0x20 DUP3 ADD MLOAD DUP2 PUSH1 0x1 ADD SWAP1 DUP1 MLOAD SWAP1 PUSH1 0x20 ADD SWAP1 PUSH2 0x672 SWAP3 SWAP2 SWAP1 PUSH2 0xB00 JUMP JUMPDEST POP PUSH1 0x40 DUP3 ADD MLOAD DUP2 PUSH1 0x2 ADD SWAP1 DUP1 MLOAD SWAP1 PUSH1 0x20 ADD SWAP1 PUSH2 0x68F SWAP3 SWAP2 SWAP1 PUSH2 0xB00 JUMP JUMPDEST POP PUSH1 0x60 DUP3 ADD MLOAD DUP2 PUSH1 0x3 ADD PUSH1 0x0 PUSH2 0x100 EXP DUP2 SLOAD DUP2 PUSH20 0xFFFFFFFFFFFFFFFFFFFFFFFFFFFFFFFFFFFFFFFF MUL NOT AND SWAP1 DUP4 PUSH20 0xFFFFFFFFFFFFFFFFFFFFFFFFFFFFFFFFFFFFFFFF AND MUL OR SWAP1 SSTORE POP PUSH1 0x80 DUP3 ADD MLOAD DUP2 PUSH1 0x4 ADD SSTORE SWAP1 POP POP PUSH1 0x4 PUSH1 0x0 DUP2 SLOAD DUP1 SWAP3 SWAP2 SWAP1 PUSH2 0x6F7 SWAP1 PUSH2 0x112A JUMP JUMPDEST SWAP2 SWAP1 POP SSTORE POP POP POP POP POP POP POP JUMP JUMPDEST PUSH1 0x2 PUSH1 0x20 MSTORE DUP1 PUSH1 0x0 MSTORE PUSH1 0x40 PUSH1 0x0 KECCAK256 PUSH1 0x0 SWAP2 POP SWAP1 POP DUP1 PUSH1 0x0 ADD SLOAD SWAP1 DUP1 PUSH1 0x1 ADD DUP1 SLOAD PUSH2 0x72D SWAP1 PUSH2 0x11A2 JUMP JUMPDEST DUP1 PUSH1 0x1F ADD PUSH1 0x20 DUP1 SWAP2 DIV MUL PUSH1 0x20 ADD PUSH1 0x40 MLOAD SWAP1 DUP2 ADD PUSH1 0x40 MSTORE DUP1 SWAP3 SWAP2 SWAP1 DUP2 DUP2 MSTORE PUSH1 0x20 ADD DUP3 DUP1 SLOAD PUSH2 0x759 SWAP1 PUSH2 0x11A2 JUMP JUMPDEST DUP1 ISZERO PUSH2 0x7A6 JUMPI DUP1 PUSH1 0x1F LT PUSH2 0x77B JUMPI PUSH2 0x100 DUP1 DUP4 SLOAD DIV MUL DUP4 MSTORE SWAP2 PUSH1 0x20 ADD SWAP2 PUSH2 0x7A6 JUMP JUMPDEST DUP3 ADD SWAP2 SWAP1 PUSH1 0x0 MSTORE PUSH1 0x20 PUSH1 0x0 KECCAK256 SWAP1 JUMPDEST DUP2 SLOAD DUP2 MSTORE SWAP1 PUSH1 0x1 ADD SWAP1 PUSH1 0x20 ADD DUP1 DUP4 GT PUSH2 0x789 JUMPI DUP3 SWAP1 SUB PUSH1 0x1F AND DUP3 ADD SWAP2 JUMPDEST POP POP POP POP POP SWAP1 DUP1 PUSH1 0x2 ADD DUP1 SLOAD PUSH2 0x7BB SWAP1 PUSH2 0x11A2 JUMP JUMPDEST DUP1 PUSH1 0x1F ADD PUSH1 0x20 DUP1 SWAP2 DIV MUL PUSH1 0x20 ADD PUSH1 0x40 MLOAD SWAP1 DUP2 ADD PUSH1 0x40 MSTORE DUP1 SWAP3 SWAP2 SWAP1 DUP2 DUP2 MSTORE PUSH1 0x20 ADD DUP3 DUP1 SLOAD PUSH2 0x7E7 SWAP1 PUSH2 0x11A2 JUMP JUMPDEST DUP1 ISZERO PUSH2 0x834 JUMPI DUP1 PUSH1 0x1F LT PUSH2 0x809 JUMPI PUSH2 0x100 DUP1 DUP4 SLOAD DIV MUL DUP4 MSTORE SWAP2 PUSH1 0x20 ADD SWAP2 PUSH2 0x834 JUMP JUMPDEST DUP3 ADD SWAP2 SWAP1 PUSH1 0x0 MSTORE PUSH1 0x20 PUSH1 0x0 KECCAK256 SWAP1 JUMPDEST DUP2 SLOAD DUP2 MSTORE SWAP1 PUSH1 0x1 ADD SWAP1 PUSH1 0x20 ADD DUP1 DUP4 GT PUSH2 0x817 JUMPI DUP3 SWAP1 SUB PUSH1 0x1F AND DUP3 ADD SWAP2 JUMPDEST POP POP POP POP POP SWAP1 DUP1 PUSH1 0x3 ADD PUSH1 0x0 SWAP1 SLOAD SWAP1 PUSH2 0x100 EXP SWAP1 DIV PUSH20 0xFFFFFFFFFFFFFFFFFFFFFFFFFFFFFFFFFFFFFFFF AND SWAP1 DUP1 PUSH1 0x4 ADD SLOAD SWAP1 POP DUP6 JUMP JUMPDEST PUSH1 0x0 DUP1 PUSH1 0x0 SWAP1 SLOAD SWAP1 PUSH2 0x100 EXP SWAP1 DIV PUSH20 0xFFFFFFFFFFFFFFFFFFFFFFFFFFFFFFFFFFFFFFFF AND PUSH20 0xFFFFFFFFFFFFFFFFFFFFFFFFFFFFFFFFFFFFFFFF AND CALLER PUSH20 0xFFFFFFFFFFFFFFFFFFFFFFFFFFFFFFFFFFFFFFFF AND EQ PUSH2 0x8C5 JUMPI PUSH1 0x0 DUP1 REVERT JUMPDEST PUSH1 0x0 PUSH1 0x1 PUSH1 0x0 DUP5 DUP2 MSTORE PUSH1 0x20 ADD SWAP1 DUP2 MSTORE PUSH1 0x20 ADD PUSH1 0x0 KECCAK256 PUSH1 0x0 SWAP1 SLOAD SWAP1 PUSH2 0x100 EXP SWAP1 DIV PUSH20 0xFFFFFFFFFFFFFFFFFFFFFFFFFFFFFFFFFFFFFFFF AND SWAP1 POP DUP1 SWAP2 POP POP SWAP2 SWAP1 POP JUMP JUMPDEST PUSH1 0x0 DUP1 PUSH1 0x0 SWAP1 SLOAD SWAP1 PUSH2 0x100 EXP SWAP1 DIV PUSH20 0xFFFFFFFFFFFFFFFFFFFFFFFFFFFFFFFFFFFFFFFF AND PUSH20 0xFFFFFFFFFFFFFFFFFFFFFFFFFFFFFFFFFFFFFFFF AND CALLER PUSH20 0xFFFFFFFFFFFFFFFFFFFFFFFFFFFFFFFFFFFFFFFF AND EQ PUSH2 0x961 JUMPI PUSH1 0x0 DUP1 REVERT JUMPDEST PUSH1 0x0 DUP3 PUSH20 0xFFFFFFFFFFFFFFFFFFFFFFFFFFFFFFFFFFFFFFFF AND BALANCE SWAP1 POP DUP1 SWAP2 POP POP SWAP2 SWAP1 POP JUMP JUMPDEST PUSH1 0x1 PUSH1 0x20 MSTORE DUP1 PUSH1 0x0 MSTORE PUSH1 0x40 PUSH1 0x0 KECCAK256 PUSH1 0x0 SWAP2 POP SLOAD SWAP1 PUSH2 0x100 EXP SWAP1 DIV PUSH20 0xFFFFFFFFFFFFFFFFFFFFFFFFFFFFFFFFFFFFFFFF AND DUP2 JUMP JUMPDEST PUSH1 0x0 DUP1 SLOAD SWAP1 PUSH2 0x100 EXP SWAP1 DIV PUSH20 0xFFFFFFFFFFFFFFFFFFFFFFFFFFFFFFFFFFFFFFFF AND PUSH20 0xFFFFFFFFFFFFFFFFFFFFFFFFFFFFFFFFFFFFFFFF AND CALLER PUSH20 0xFFFFFFFFFFFFFFFFFFFFFFFFFFFFFFFFFFFFFFFF AND EQ PUSH2 0xA11 JUMPI PUSH1 0x0 DUP1 REVERT JUMPDEST DUP2 PUSH1 0x1 PUSH1 0x0 DUP4 DUP2 MSTORE PUSH1 0x20 ADD SWAP1 DUP2 MSTORE PUSH1 0x20 ADD PUSH1 0x0 KECCAK256 PUSH1 0x0 PUSH2 0x100 EXP DUP2 SLOAD DUP2 PUSH20 0xFFFFFFFFFFFFFFFFFFFFFFFFFFFFFFFFFFFFFFFF MUL NOT AND SWAP1 DUP4 PUSH20 0xFFFFFFFFFFFFFFFFFFFFFFFFFFFFFFFFFFFFFFFF AND MUL OR SWAP1 SSTORE POP DUP1 PUSH1 0x3 PUSH1 0x0 DUP5 PUSH20 0xFFFFFFFFFFFFFFFFFFFFFFFFFFFFFFFFFFFFFFFF AND PUSH20 0xFFFFFFFFFFFFFFFFFFFFFFFFFFFFFFFFFFFFFFFF AND DUP2 MSTORE PUSH1 0x20 ADD SWAP1 DUP2 MSTORE PUSH1 0x20 ADD PUSH1 0x0 KECCAK256 DUP2 SWAP1 SSTORE POP DUP2 PUSH1 0x2 PUSH1 0x0 DUP4 DUP2 MSTORE PUSH1 0x20 ADD SWAP1 DUP2 MSTORE PUSH1 0x20 ADD PUSH1 0x0 KECCAK256 PUSH1 0x3 ADD PUSH1 0x0 PUSH2 0x100 EXP DUP2 SLOAD DUP2 PUSH20 0xFFFFFFFFFFFFFFFFFFFFFFFFFFFFFFFFFFFFFFFF MUL NOT AND SWAP1 DUP4 PUSH20 0xFFFFFFFFFFFFFFFFFFFFFFFFFFFFFFFFFFFFFFFF AND MUL OR SWAP1 SSTORE POP POP POP JUMP JUMPDEST DUP3 DUP1 SLOAD PUSH2 0xB0C SWAP1 PUSH2 0x11A2 JUMP JUMPDEST SWAP1 PUSH1 0x0 MSTORE PUSH1 0x20 PUSH1 0x0 KECCAK256 SWAP1 PUSH1 0x1F ADD PUSH1 0x20 SWAP1 DIV DUP2 ADD SWAP3 DUP3 PUSH2 0xB2E JUMPI PUSH1 0x0 DUP6 SSTORE PUSH2 0xB75 JUMP JUMPDEST DUP3 PUSH1 0x1F LT PUSH2 0xB47 JUMPI DUP1 MLOAD PUSH1 0xFF NOT AND DUP4 DUP1 ADD OR DUP6 SSTORE PUSH2 0xB75 JUMP JUMPDEST DUP3 DUP1 ADD PUSH1 0x1 ADD DUP6 SSTORE DUP3 ISZERO PUSH2 0xB75 JUMPI SWAP2 DUP3 ADD JUMPDEST DUP3 DUP2 GT ISZERO PUSH2 0xB74 JUMPI DUP3 MLOAD DUP3 SSTORE SWAP2 PUSH1 0x20 ADD SWAP2 SWAP1 PUSH1 0x1 ADD SWAP1 PUSH2 0xB59 JUMP JUMPDEST JUMPDEST POP SWAP1 POP PUSH2 0xB82 SWAP2 SWAP1 PUSH2 0xB86 JUMP JUMPDEST POP SWAP1 JUMP JUMPDEST JUMPDEST DUP1 DUP3 GT ISZERO PUSH2 0xB9F JUMPI PUSH1 0x0 DUP2 PUSH1 0x0 SWAP1 SSTORE POP PUSH1 0x1 ADD PUSH2 0xB87 JUMP JUMPDEST POP SWAP1 JUMP JUMPDEST PUSH1 0x0 DUP2 SWAP1 POP SWAP2 SWAP1 POP JUMP JUMPDEST PUSH2 0xBB6 DUP2 PUSH2 0xBA3 JUMP JUMPDEST DUP3 MSTORE POP POP JUMP JUMPDEST PUSH1 0x0 PUSH1 0x20 DUP3 ADD SWAP1 POP PUSH2 0xBD1 PUSH1 0x0 DUP4 ADD DUP5 PUSH2 0xBAD JUMP JUMPDEST SWAP3 SWAP2 POP POP JUMP JUMPDEST PUSH1 0x0 PUSH1 0x40 MLOAD SWAP1 POP SWAP1 JUMP JUMPDEST PUSH1 0x0 DUP1 REVERT JUMPDEST PUSH1 0x0 DUP1 REVERT JUMPDEST PUSH1 0x0 PUSH20 0xFFFFFFFFFFFFFFFFFFFFFFFFFFFFFFFFFFFFFFFF DUP3 AND SWAP1 POP SWAP2 SWAP1 POP JUMP JUMPDEST PUSH1 0x0 PUSH2 0xC16 DUP3 PUSH2 0xBEB JUMP JUMPDEST SWAP1 POP SWAP2 SWAP1 POP JUMP JUMPDEST PUSH2 0xC26 DUP2 PUSH2 0xC0B JUMP JUMPDEST DUP2 EQ PUSH2 0xC31 JUMPI PUSH1 0x0 DUP1 REVERT JUMPDEST POP JUMP JUMPDEST PUSH1 0x0 DUP2 CALLDATALOAD SWAP1 POP PUSH2 0xC43 DUP2 PUSH2 0xC1D JUMP JUMPDEST SWAP3 SWAP2 POP POP JUMP JUMPDEST PUSH1 0x0 PUSH1 0x20 DUP3 DUP5 SUB SLT ISZERO PUSH2 0xC5F JUMPI PUSH2 0xC5E PUSH2 0xBE1 JUMP JUMPDEST JUMPDEST PUSH1 0x0 PUSH2 0xC6D DUP5 DUP3 DUP6 ADD PUSH2 0xC34 JUMP JUMPDEST SWAP2 POP POP SWAP3 SWAP2 POP POP JUMP JUMPDEST PUSH2 0xC7F DUP2 PUSH2 0xBA3 JUMP JUMPDEST DUP2 EQ PUSH2 0xC8A JUMPI PUSH1 0x0 DUP1 REVERT JUMPDEST POP JUMP JUMPDEST PUSH1 0x0 DUP2 CALLDATALOAD SWAP1 POP PUSH2 0xC9C DUP2 PUSH2 0xC76 JUMP JUMPDEST SWAP3 SWAP2 POP POP JUMP JUMPDEST PUSH1 0x0 PUSH1 0x20 DUP3 DUP5 SUB SLT ISZERO PUSH2 0xCB8 JUMPI PUSH2 0xCB7 PUSH2 0xBE1 JUMP JUMPDEST JUMPDEST PUSH1 0x0 PUSH2 0xCC6 DUP5 DUP3 DUP6 ADD PUSH2 0xC8D JUMP JUMPDEST SWAP2 POP POP SWAP3 SWAP2 POP POP JUMP JUMPDEST PUSH1 0x0 DUP1 PUSH1 0x0 PUSH1 0x60 DUP5 DUP7 SUB SLT ISZERO PUSH2 0xCE8 JUMPI PUSH2 0xCE7 PUSH2 0xBE1 JUMP JUMPDEST JUMPDEST PUSH1 0x0 PUSH2 0xCF6 DUP7 DUP3 DUP8 ADD PUSH2 0xC34 JUMP JUMPDEST SWAP4 POP POP PUSH1 0x20 PUSH2 0xD07 DUP7 DUP3 DUP8 ADD PUSH2 0xC34 JUMP JUMPDEST SWAP3 POP POP PUSH1 0x40 PUSH2 0xD18 DUP7 DUP3 DUP8 ADD PUSH2 0xC8D JUMP JUMPDEST SWAP2 POP POP SWAP3 POP SWAP3 POP SWAP3 JUMP JUMPDEST PUSH1 0x0 DUP1 REVERT JUMPDEST PUSH1 0x0 DUP1 REVERT JUMPDEST PUSH1 0x0 PUSH1 0x1F NOT PUSH1 0x1F DUP4 ADD AND SWAP1 POP SWAP2 SWAP1 POP JUMP JUMPDEST PUSH32 0x4E487B7100000000000000000000000000000000000000000000000000000000 PUSH1 0x0 MSTORE PUSH1 0x41 PUSH1 0x4 MSTORE PUSH1 0x24 PUSH1 0x0 REVERT JUMPDEST PUSH2 0xD75 DUP3 PUSH2 0xD2C JUMP JUMPDEST DUP2 ADD DUP2 DUP2 LT PUSH8 0xFFFFFFFFFFFFFFFF DUP3 GT OR ISZERO PUSH2 0xD94 JUMPI PUSH2 0xD93 PUSH2 0xD3D JUMP JUMPDEST JUMPDEST DUP1 PUSH1 0x40 MSTORE POP POP POP JUMP JUMPDEST PUSH1 0x0 PUSH2 0xDA7 PUSH2 0xBD7 JUMP JUMPDEST SWAP1 POP PUSH2 0xDB3 DUP3 DUP3 PUSH2 0xD6C JUMP JUMPDEST SWAP2 SWAP1 POP JUMP JUMPDEST PUSH1 0x0 PUSH8 0xFFFFFFFFFFFFFFFF DUP3 GT ISZERO PUSH2 0xDD3 JUMPI PUSH2 0xDD2 PUSH2 0xD3D JUMP JUMPDEST JUMPDEST PUSH2 0xDDC DUP3 PUSH2 0xD2C JUMP JUMPDEST SWAP1 POP PUSH1 0x20 DUP2 ADD SWAP1 POP SWAP2 SWAP1 POP JUMP JUMPDEST DUP3 DUP2 DUP4 CALLDATACOPY PUSH1 0x0 DUP4 DUP4 ADD MSTORE POP POP POP JUMP JUMPDEST PUSH1 0x0 PUSH2 0xE0B PUSH2 0xE06 DUP5 PUSH2 0xDB8 JUMP JUMPDEST PUSH2 0xD9D JUMP JUMPDEST SWAP1 POP DUP3 DUP2 MSTORE PUSH1 0x20 DUP2 ADD DUP5 DUP5 DUP5 ADD GT ISZERO PUSH2 0xE27 JUMPI PUSH2 0xE26 PUSH2 0xD27 JUMP JUMPDEST JUMPDEST PUSH2 0xE32 DUP5 DUP3 DUP6 PUSH2 0xDE9 JUMP JUMPDEST POP SWAP4 SWAP3 POP POP POP JUMP JUMPDEST PUSH1 0x0 DUP3 PUSH1 0x1F DUP4 ADD SLT PUSH2 0xE4F JUMPI PUSH2 0xE4E PUSH2 0xD22 JUMP JUMPDEST JUMPDEST DUP2 CALLDATALOAD PUSH2 0xE5F DUP5 DUP3 PUSH1 0x20 DUP7 ADD PUSH2 0xDF8 JUMP JUMPDEST SWAP2 POP POP SWAP3 SWAP2 POP POP JUMP JUMPDEST PUSH1 0x0 DUP1 PUSH1 0x0 DUP1 PUSH1 0x80 DUP6 DUP8 SUB SLT ISZERO PUSH2 0xE82 JUMPI PUSH2 0xE81 PUSH2 0xBE1 JUMP JUMPDEST JUMPDEST PUSH1 0x0 DUP6 ADD CALLDATALOAD PUSH8 0xFFFFFFFFFFFFFFFF DUP2 GT ISZERO PUSH2 0xEA0 JUMPI PUSH2 0xE9F PUSH2 0xBE6 JUMP JUMPDEST JUMPDEST PUSH2 0xEAC DUP8 DUP3 DUP9 ADD PUSH2 0xE3A JUMP JUMPDEST SWAP5 POP POP PUSH1 0x20 DUP6 ADD CALLDATALOAD PUSH8 0xFFFFFFFFFFFFFFFF DUP2 GT ISZERO PUSH2 0xECD JUMPI PUSH2 0xECC PUSH2 0xBE6 JUMP JUMPDEST JUMPDEST PUSH2 0xED9 DUP8 DUP3 DUP9 ADD PUSH2 0xE3A JUMP JUMPDEST SWAP4 POP POP PUSH1 0x40 DUP6 ADD CALLDATALOAD PUSH8 0xFFFFFFFFFFFFFFFF DUP2 GT ISZERO PUSH2 0xEFA JUMPI PUSH2 0xEF9 PUSH2 0xBE6 JUMP JUMPDEST JUMPDEST PUSH2 0xF06 DUP8 DUP3 DUP9 ADD PUSH2 0xE3A JUMP JUMPDEST SWAP3 POP POP PUSH1 0x60 PUSH2 0xF17 DUP8 DUP3 DUP9 ADD PUSH2 0xC8D JUMP JUMPDEST SWAP2 POP POP SWAP3 SWAP6 SWAP2 SWAP5 POP SWAP3 POP JUMP JUMPDEST PUSH1 0x0 DUP2 MLOAD SWAP1 POP SWAP2 SWAP1 POP JUMP JUMPDEST PUSH1 0x0 DUP3 DUP3 MSTORE PUSH1 0x20 DUP3 ADD SWAP1 POP SWAP3 SWAP2 POP POP JUMP JUMPDEST PUSH1 0x0 JUMPDEST DUP4 DUP2 LT ISZERO PUSH2 0xF5D JUMPI DUP1 DUP3 ADD MLOAD DUP2 DUP5 ADD MSTORE PUSH1 0x20 DUP2 ADD SWAP1 POP PUSH2 0xF42 JUMP JUMPDEST DUP4 DUP2 GT ISZERO PUSH2 0xF6C JUMPI PUSH1 0x0 DUP5 DUP5 ADD MSTORE JUMPDEST POP POP POP POP JUMP JUMPDEST PUSH1 0x0 PUSH2 0xF7D DUP3 PUSH2 0xF23 JUMP JUMPDEST PUSH2 0xF87 DUP2 DUP6 PUSH2 0xF2E JUMP JUMPDEST SWAP4 POP PUSH2 0xF97 DUP2 DUP6 PUSH1 0x20 DUP7 ADD PUSH2 0xF3F JUMP JUMPDEST PUSH2 0xFA0 DUP2 PUSH2 0xD2C JUMP JUMPDEST DUP5 ADD SWAP2 POP POP SWAP3 SWAP2 POP POP JUMP JUMPDEST PUSH2 0xFB4 DUP2 PUSH2 0xC0B JUMP JUMPDEST DUP3 MSTORE POP POP JUMP JUMPDEST PUSH1 0x0 PUSH1 0xA0 DUP3 ADD SWAP1 POP PUSH2 0xFCF PUSH1 0x0 DUP4 ADD DUP9 PUSH2 0xBAD JUMP JUMPDEST DUP2 DUP2 SUB PUSH1 0x20 DUP4 ADD MSTORE PUSH2 0xFE1 DUP2 DUP8 PUSH2 0xF72 JUMP JUMPDEST SWAP1 POP DUP2 DUP2 SUB PUSH1 0x40 DUP4 ADD MSTORE PUSH2 0xFF5 DUP2 DUP7 PUSH2 0xF72 JUMP JUMPDEST SWAP1 POP PUSH2 0x1004 PUSH1 0x60 DUP4 ADD DUP6 PUSH2 0xFAB JUMP JUMPDEST PUSH2 0x1011 PUSH1 0x80 DUP4 ADD DUP5 PUSH2 0xBAD JUMP JUMPDEST SWAP7 SWAP6 POP POP POP POP POP POP JUMP JUMPDEST PUSH1 0x0 PUSH1 0x20 DUP3 ADD SWAP1 POP PUSH2 0x1030 PUSH1 0x0 DUP4 ADD DUP5 PUSH2 0xFAB JUMP JUMPDEST SWAP3 SWAP2 POP POP JUMP JUMPDEST PUSH1 0x0 DUP1 PUSH1 0x40 DUP4 DUP6 SUB SLT ISZERO PUSH2 0x104D JUMPI PUSH2 0x104C PUSH2 0xBE1 JUMP JUMPDEST JUMPDEST PUSH1 0x0 PUSH2 0x105B DUP6 DUP3 DUP7 ADD PUSH2 0xC34 JUMP JUMPDEST SWAP3 POP POP PUSH1 0x20 PUSH2 0x106C DUP6 DUP3 DUP7 ADD PUSH2 0xC8D JUMP JUMPDEST SWAP2 POP POP SWAP3 POP SWAP3 SWAP1 POP JUMP JUMPDEST PUSH1 0x0 DUP2 SWAP1 POP SWAP2 SWAP1 POP JUMP JUMPDEST PUSH2 0x1091 PUSH2 0x108C DUP3 PUSH2 0xBA3 JUMP JUMPDEST PUSH2 0x1076 JUMP JUMPDEST DUP3 MSTORE POP POP JUMP JUMPDEST PUSH1 0x0 DUP2 SWAP1 POP SWAP3 SWAP2 POP POP JUMP JUMPDEST PUSH1 0x0 PUSH2 0x10AD DUP3 PUSH2 0xF23 JUMP JUMPDEST PUSH2 0x10B7 DUP2 DUP6 PUSH2 0x1097 JUMP JUMPDEST SWAP4 POP PUSH2 0x10C7 DUP2 DUP6 PUSH1 0x20 DUP7 ADD PUSH2 0xF3F JUMP JUMPDEST DUP1 DUP5 ADD SWAP2 POP POP SWAP3 SWAP2 POP POP JUMP JUMPDEST PUSH1 0x0 PUSH2 0x10DF DUP3 DUP6 PUSH2 0x1080 JUMP JUMPDEST PUSH1 0x20 DUP3 ADD SWAP2 POP PUSH2 0x10EF DUP3 DUP5 PUSH2 0x10A2 JUMP JUMPDEST SWAP2 POP DUP2 SWAP1 POP SWAP4 SWAP3 POP POP POP JUMP JUMPDEST PUSH32 0x4E487B7100000000000000000000000000000000000000000000000000000000 PUSH1 0x0 MSTORE PUSH1 0x11 PUSH1 0x4 MSTORE PUSH1 0x24 PUSH1 0x0 REVERT JUMPDEST PUSH1 0x0 PUSH2 0x1135 DUP3 PUSH2 0xBA3 JUMP JUMPDEST SWAP2 POP PUSH32 0xFFFFFFFFFFFFFFFFFFFFFFFFFFFFFFFFFFFFFFFFFFFFFFFFFFFFFFFFFFFFFFFF DUP3 EQ ISZERO PUSH2 0x1168 JUMPI PUSH2 0x1167 PUSH2 0x10FB JUMP JUMPDEST JUMPDEST PUSH1 0x1 DUP3 ADD SWAP1 POP SWAP2 SWAP1 POP JUMP JUMPDEST PUSH32 0x4E487B7100000000000000000000000000000000000000000000000000000000 PUSH1 0x0 MSTORE PUSH1 0x22 PUSH1 0x4 MSTORE PUSH1 0x24 PUSH1 0x0 REVERT JUMPDEST PUSH1 0x0 PUSH1 0x2 DUP3 DIV SWAP1 POP PUSH1 0x1 DUP3 AND DUP1 PUSH2 0x11BA JUMPI PUSH1 0x7F DUP3 AND SWAP2 POP JUMPDEST PUSH1 0x20 DUP3 LT DUP2 EQ ISZERO PUSH2 0x11CE JUMPI PUSH2 0x11CD PUSH2 0x1173 JUMP JUMPDEST JUMPDEST POP SWAP2 SWAP1 POP JUMP INVALID LOG2 PUSH5 0x6970667358 0x22 SLT KECCAK256 CODESIZE ADDRESS 0xDE 0xDA EQ 0x1E TIMESTAMP DUP13 0x4D EQ PUSH19 0x5EF350974F47F6D603DF000394F0701D79DF88 0xC9 0xDB PUSH5 0x736F6C6343 STOP ADDMOD MULMOD STOP CALLER "},"gasEstimates":{"creation":{"codeDepositCost":"923600","executionCost":"47342","totalCost":"970942"},"external":{"balanceOf(address)":"5484","currentNumberOfTokens()":"2430","mint(string,string,string,uint256)":"infinite","ownerOf(uint256)":"5070","owners(address)":"2837","ownership(uint256)":"2905","skills(uint256)":"infinite","transactionToCreator(uint256)":"infinite","transfer(address,uint256)":"73783","transferFrom(address,address,uint256)":"infinite"}},"methodIdentifiers":{"balanceOf(address)":"70a08231","currentNumberOfTokens()":"01051c72","mint(string,string,string,uint256)":"31b6475c","ownerOf(uint256)":"6352211e","owners(address)":"022914a7","ownership(uint256)":"a0f45b69","skills(uint256)":"50d15fbe","transactionToCreator(uint256)":"12d89dee","transfer(address,uint256)":"a9059cbb","transferFrom(address,address,uint256)":"23b872dd"}},"storageLayout":{"storage":[{"astId":14,"contract":"UniqueSkill.sol:UniqueSkill","label":"creator","offset":0,"slot":"0","type":"t_address_payable"},{"astId":18,"contract":"UniqueSkill.sol:UniqueSkill","label":"ownership","offset":0,"slot":"1","type":"t_mapping(t_uint256,t_address)"},{"astId":23,"contract":"UniqueSkill.sol:UniqueSkill","label":"skills","offset":0,"slot":"2","type":"t_mapping(t_uint256,t_struct(SkillData)12_storage)"},{"astId":27,"contract":"UniqueSkill.sol:UniqueSkill","label":"owners","offset":0,"slot":"3","type":"t_mapping(t_address,t_uint256)"},{"astId":29,"contract":"UniqueSkill.sol:UniqueSkill","label":"currentNumberOfTokens","offset":0,"slot":"4","type":"t_uint256"},{"astId":33,"contract":"UniqueSkill.sol:UniqueSkill","label":"tokens","offset":0,"slot":"5","type":"t_mapping(t_uint256,t_bytes32)"}],"types":{"t_address":{"encoding":"inplace","label":"address","numberOfBytes":"20"},"t_address_payable":{"encoding":"inplace","label":"address payable","numberOfBytes":"20"},"t_bytes32":{"encoding":"inplace","label":"bytes32","numberOfBytes":"32"},"t_mapping(t_address,t_uint256)":{"encoding":"mapping","key":"t_address","label":"mapping(address => uint256)","numberOfBytes":"32","value":"t_uint256"},"t_mapping(t_uint256,t_address)":{"encoding":"mapping","key":"t_uint256","label":"mapping(uint256 => address)","numberOfBytes":"32","value":"t_address"},"t_mapping(t_uint256,t_bytes32)":{"encoding":"mapping","key":"t_uint256","label":"mapping(uint256 => bytes32)","numberOfBytes":"32","value":"t_bytes32"},"t_mapping(t_uint256,t_struct(SkillData)12_storage)":{"encoding":"mapping","key":"t_uint256","label":"mapping(uint256 => struct UniqueSkill.SkillData)","numberOfBytes":"32","value":"t_struct(SkillData)12_storage"},"t_string_storage":{"encoding":"bytes","label":"string","numberOfBytes":"32"},"t_struct(SkillData)12_storage":{"encoding":"inplace","label":"struct UniqueSkill.SkillData","members":[{"astId":3,"contract":"UniqueSkill.sol:UniqueSkill","label":"tokenId","offset":0,"slot":"0","type":"t_uint256"},{"astId":5,"contract":"UniqueSkill.sol:UniqueSkill","label":"skill","offset":0,"slot":"1","type":"t_string_storage"},{"astId":7,"contract":"UniqueSkill.sol:UniqueSkill","label":"description","offset":0,"slot":"2","type":"t_string_storage"},{"astId":9,"contract":"UniqueSkill.sol:UniqueSkill","label":"currentOwner","offset":0,"slot":"3","type":"t_address"},{"astId":11,"contract":"UniqueSkill.sol:UniqueSkill","label":"value","offset":0,"slot":"4","type":"t_uint256"}],"numberOfBytes":"160"},"t_uint256":{"encoding":"inplace","label":"uint256","numberOfBytes":"32"}}},"userdoc":{"kind":"user","methods":{},"version":1}}